{"abi":[{"type":"constructor","inputs":[{"name":"_usdcToken","type":"address","internalType":"address"},{"name":"_wbtcToken","type":"address","internalType":"address"}],"stateMutability":"nonpayable"},{"type":"receive","stateMutability":"payable"},{"type":"function","name":"LOCK_12_MONTHS","inputs":[],"outputs":[{"name":"","type":"uint256","internalType":"uint256"}],"stateMutability":"view"},{"type":"function","name":"LOCK_3_MONTHS","inputs":[],"outputs":[{"name":"","type":"uint256","internalType":"uint256"}],"stateMutability":"view"},{"type":"function","name":"LOCK_6_MONTHS","inputs":[],"outputs":[{"name":"","type":"uint256","internalType":"uint256"}],"stateMutability":"view"},{"type":"function","name":"LOCK_9_MONTHS","inputs":[],"outputs":[{"name":"","type":"uint256","internalType":"uint256"}],"stateMutability":"view"},{"type":"function","name":"addMultipleToWhitelist","inputs":[{"name":"users","type":"address[]","internalType":"address[]"}],"outputs":[],"stateMutability":"nonpayable"},{"type":"function","name":"addToWhitelist","inputs":[{"name":"user","type":"address","internalType":"address"}],"outputs":[],"stateMutability":"nonpayable"},{"type":"function","name":"depositETH","inputs":[{"name":"lockDuration","type":"uint256","internalType":"uint256"}],"outputs":[],"stateMutability":"payable"},{"type":"function","name":"depositUSDC","inputs":[{"name":"amount","type":"uint256","internalType":"uint256"},{"name":"lockDuration","type":"uint256","internalType":"uint256"}],"outputs":[],"stateMutability":"nonpayable"},{"type":"function","name":"depositWBTC","inputs":[{"name":"amount","type":"uint256","internalType":"uint256"},{"name":"lockDuration","type":"uint256","internalType":"uint256"}],"outputs":[],"stateMutability":"nonpayable"},{"type":"function","name":"disableWhitelist","inputs":[],"outputs":[],"stateMutability":"nonpayable"},{"type":"function","name":"enableWhitelist","inputs":[],"outputs":[],"stateMutability":"nonpayable"},{"type":"function","name":"forwardDeposit","inputs":[{"name":"depositId","type":"uint256","internalType":"uint256"},{"name":"to","type":"address","internalType":"address"}],"outputs":[],"stateMutability":"nonpayable"},{"type":"function","name":"getActiveDepositCount","inputs":[{"name":"user","type":"address","internalType":"address"}],"outputs":[{"name":"","type":"uint256","internalType":"uint256"}],"stateMutability":"view"},{"type":"function","name":"getAvailableWithdrawalAmount","inputs":[{"name":"user","type":"address","internalType":"address"}],"outputs":[{"name":"","type":"uint256","internalType":"uint256"}],"stateMutability":"view"},{"type":"function","name":"getContractBalance","inputs":[],"outputs":[{"name":"","type":"uint256","internalType":"uint256"}],"stateMutability":"view"},{"type":"function","name":"getContractETHBalance","inputs":[],"outputs":[{"name":"","type":"uint256","internalType":"uint256"}],"stateMutability":"view"},{"type":"function","name":"getContractWBTCBalance","inputs":[],"outputs":[{"name":"","type":"uint256","internalType":"uint256"}],"stateMutability":"view"},{"type":"function","name":"getDeposit","inputs":[{"name":"user","type":"address","internalType":"address"},{"name":"depositId","type":"uint256","internalType":"uint256"}],"outputs":[{"name":"","type":"tuple","internalType":"struct TimelockPiggyBank.Deposit","components":[{"name":"amount","type":"uint256","internalType":"uint256"},{"name":"lockDuration","type":"uint256","internalType":"uint256"},{"name":"depositTime","type":"uint256","internalType":"uint256"},{"name":"isWithdrawn","type":"bool","internalType":"bool"},{"name":"assetType","type":"uint8","internalType":"enum TimelockPiggyBank.AssetType"}]}],"stateMutability":"view"},{"type":"function","name":"getTotalLockedAmount","inputs":[{"name":"user","type":"address","internalType":"address"}],"outputs":[{"name":"","type":"uint256","internalType":"uint256"}],"stateMutability":"view"},{"type":"function","name":"getTotalLockedETH","inputs":[{"name":"user","type":"address","internalType":"address"}],"outputs":[{"name":"","type":"uint256","internalType":"uint256"}],"stateMutability":"view"},{"type":"function","name":"getTotalLockedUSDC","inputs":[{"name":"user","type":"address","internalType":"address"}],"outputs":[{"name":"","type":"uint256","internalType":"uint256"}],"stateMutability":"view"},{"type":"function","name":"getTotalLockedWBTC","inputs":[{"name":"user","type":"address","internalType":"address"}],"outputs":[{"name":"","type":"uint256","internalType":"uint256"}],"stateMutability":"view"},{"type":"function","name":"getUserDepositCount","inputs":[{"name":"user","type":"address","internalType":"address"}],"outputs":[{"name":"","type":"uint256","internalType":"uint256"}],"stateMutability":"view"},{"type":"function","name":"getValidLockDurations","inputs":[],"outputs":[{"name":"","type":"uint256[]","internalType":"uint256[]"}],"stateMutability":"pure"},{"type":"function","name":"isDepositUnlocked","inputs":[{"name":"user","type":"address","internalType":"address"},{"name":"depositId","type":"uint256","internalType":"uint256"}],"outputs":[{"name":"","type":"bool","internalType":"bool"}],"stateMutability":"view"},{"type":"function","name":"isValidLockDuration","inputs":[{"name":"lockDuration","type":"uint256","internalType":"uint256"}],"outputs":[{"name":"","type":"bool","internalType":"bool"}],"stateMutability":"pure"},{"type":"function","name":"isWhitelisted","inputs":[{"name":"","type":"address","internalType":"address"}],"outputs":[{"name":"","type":"bool","internalType":"bool"}],"stateMutability":"view"},{"type":"function","name":"owner","inputs":[],"outputs":[{"name":"","type":"address","internalType":"address"}],"stateMutability":"view"},{"type":"function","name":"pause","inputs":[],"outputs":[],"stateMutability":"nonpayable"},{"type":"function","name":"paused","inputs":[],"outputs":[{"name":"","type":"bool","internalType":"bool"}],"stateMutability":"view"},{"type":"function","name":"removeFromWhitelist","inputs":[{"name":"user","type":"address","internalType":"address"}],"outputs":[],"stateMutability":"nonpayable"},{"type":"function","name":"renounceOwnership","inputs":[],"outputs":[],"stateMutability":"nonpayable"},{"type":"function","name":"rescueETH","inputs":[{"name":"to","type":"address","internalType":"address"}],"outputs":[],"stateMutability":"nonpayable"},{"type":"function","name":"rescueTokens","inputs":[{"name":"token","type":"address","internalType":"address"},{"name":"amount","type":"uint256","internalType":"uint256"},{"name":"to","type":"address","internalType":"address"}],"outputs":[],"stateMutability":"nonpayable"},{"type":"function","name":"topUpETH","inputs":[{"name":"depositId","type":"uint256","internalType":"uint256"}],"outputs":[],"stateMutability":"payable"},{"type":"function","name":"topUpUSDC","inputs":[{"name":"depositId","type":"uint256","internalType":"uint256"},{"name":"amount","type":"uint256","internalType":"uint256"}],"outputs":[],"stateMutability":"nonpayable"},{"type":"function","name":"topUpWBTC","inputs":[{"name":"depositId","type":"uint256","internalType":"uint256"},{"name":"amount","type":"uint256","internalType":"uint256"}],"outputs":[],"stateMutability":"nonpayable"},{"type":"function","name":"transferOwnership","inputs":[{"name":"newOwner","type":"address","internalType":"address"}],"outputs":[],"stateMutability":"nonpayable"},{"type":"function","name":"unpause","inputs":[],"outputs":[],"stateMutability":"nonpayable"},{"type":"function","name":"usdcToken","inputs":[],"outputs":[{"name":"","type":"address","internalType":"contract IERC20"}],"stateMutability":"view"},{"type":"function","name":"userDepositCount","inputs":[{"name":"","type":"address","internalType":"address"}],"outputs":[{"name":"","type":"uint256","internalType":"uint256"}],"stateMutability":"view"},{"type":"function","name":"userDeposits","inputs":[{"name":"","type":"address","internalType":"address"},{"name":"","type":"uint256","internalType":"uint256"}],"outputs":[{"name":"amount","type":"uint256","internalType":"uint256"},{"name":"lockDuration","type":"uint256","internalType":"uint256"},{"name":"depositTime","type":"uint256","internalType":"uint256"},{"name":"isWithdrawn","type":"bool","internalType":"bool"},{"name":"assetType","type":"uint8","internalType":"enum TimelockPiggyBank.AssetType"}],"stateMutability":"view"},{"type":"function","name":"wbtcToken","inputs":[],"outputs":[{"name":"","type":"address","internalType":"contract IERC20"}],"stateMutability":"view"},{"type":"function","name":"whitelistEnabled","inputs":[],"outputs":[{"name":"","type":"bool","internalType":"bool"}],"stateMutability":"view"},{"type":"function","name":"withdraw","inputs":[{"name":"depositId","type":"uint256","internalType":"uint256"}],"outputs":[],"stateMutability":"nonpayable"},{"type":"event","name":"DepositCreated","inputs":[{"name":"user","type":"address","indexed":true,"internalType":"address"},{"name":"depositId","type":"uint256","indexed":true,"internalType":"uint256"},{"name":"amount","type":"uint256","indexed":false,"internalType":"uint256"},{"name":"lockDuration","type":"uint256","indexed":false,"internalType":"uint256"}],"anonymous":false},{"type":"event","name":"DepositForwarded","inputs":[{"name":"user","type":"address","indexed":true,"internalType":"address"},{"name":"depositId","type":"uint256","indexed":true,"internalType":"uint256"},{"name":"amount","type":"uint256","indexed":false,"internalType":"uint256"},{"name":"to","type":"address","indexed":true,"internalType":"address"}],"anonymous":false},{"type":"event","name":"DepositToppedUp","inputs":[{"name":"user","type":"address","indexed":true,"internalType":"address"},{"name":"depositId","type":"uint256","indexed":true,"internalType":"uint256"},{"name":"amount","type":"uint256","indexed":false,"internalType":"uint256"},{"name":"newTotal","type":"uint256","indexed":false,"internalType":"uint256"}],"anonymous":false},{"type":"event","name":"DepositWithdrawn","inputs":[{"name":"user","type":"address","indexed":true,"internalType":"address"},{"name":"depositId","type":"uint256","indexed":true,"internalType":"uint256"},{"name":"amount","type":"uint256","indexed":false,"internalType":"uint256"},{"name":"to","type":"address","indexed":true,"internalType":"address"}],"anonymous":false},{"type":"event","name":"OwnershipTransferred","inputs":[{"name":"previousOwner","type":"address","indexed":true,"internalType":"address"},{"name":"newOwner","type":"address","indexed":true,"internalType":"address"}],"anonymous":false},{"type":"event","name":"Paused","inputs":[{"name":"account","type":"address","indexed":false,"internalType":"address"}],"anonymous":false},{"type":"event","name":"TokensRescued","inputs":[{"name":"token","type":"address","indexed":true,"internalType":"address"},{"name":"amount","type":"uint256","indexed":false,"internalType":"uint256"},{"name":"to","type":"address","indexed":true,"internalType":"address"}],"anonymous":false},{"type":"event","name":"Unpaused","inputs":[{"name":"account","type":"address","indexed":false,"internalType":"address"}],"anonymous":false},{"type":"event","name":"UserRemovedFromWhitelist","inputs":[{"name":"user","type":"address","indexed":true,"internalType":"address"}],"anonymous":false},{"type":"event","name":"UserWhitelisted","inputs":[{"name":"user","type":"address","indexed":true,"internalType":"address"}],"anonymous":false},{"type":"event","name":"WhitelistDisabled","inputs":[],"anonymous":false},{"type":"event","name":"WhitelistEnabled","inputs":[],"anonymous":false},{"type":"error","name":"DepositAlreadyWithdrawn","inputs":[]},{"type":"error","name":"DepositNotFound","inputs":[]},{"type":"error","name":"DepositNotUnlocked","inputs":[]},{"type":"error","name":"EnforcedPause","inputs":[]},{"type":"error","name":"ExpectedPause","inputs":[]},{"type":"error","name":"InsufficientBalance","inputs":[]},{"type":"error","name":"InvalidDepositId","inputs":[]},{"type":"error","name":"InvalidLockDuration","inputs":[]},{"type":"error","name":"NotWhitelisted","inputs":[]},{"type":"error","name":"OwnableInvalidOwner","inputs":[{"name":"owner","type":"address","internalType":"address"}]},{"type":"error","name":"OwnableUnauthorizedAccount","inputs":[{"name":"account","type":"address","internalType":"address"}]},{"type":"error","name":"ReentrancyGuardReentrantCall","inputs":[]},{"type":"error","name":"SafeERC20FailedOperation","inputs":[{"name":"token","type":"address","internalType":"address"}]},{"type":"error","name":"ZeroAddress","inputs":[]},{"type":"error","name":"ZeroAmount","inputs":[]}],"bytecode":{"object":"0x60c060405234801562000010575f80fd5b50604051620028ce380380620028ce833981016040819052620000339162000148565b60015f5533806200005d57604051631e4fbdf760e01b81525f600482015260240160405180910390fd5b6200006881620000db565b506001600160a01b038216620000915760405163d92e233d60e01b815260040160405180910390fd5b6001600160a01b038116620000b95760405163d92e233d60e01b815260040160405180910390fd5b6001600160a01b039182166080521660a0526005805460ff191690556200017e565b600180546001600160a01b038381166001600160a01b0319831681179093556040519116919082907f8be0079c531659141344cd1fd0a4f28419497f9722a3daafe3b4186f6b6457e0905f90a35050565b80516001600160a01b038116811462000143575f80fd5b919050565b5f80604083850312156200015a575f80fd5b62000165836200012c565b915062000175602084016200012c565b90509250929050565b60805160a0516126f6620001d85f395f818161042b0152818161134c015281816115e701528181611e58015261212201525f8181610380015281816111a601528181611b6001528181611e1901526120c001526126f65ff3fe60806040526004361061026d575f3560e01c80636c90c8551161014a578063b37fd190116100be578063e43252d711610078578063e43252d71461078b578063e740010f146107aa578063ebeaf08f146107c9578063f2fde38b146107e8578063f79253a114610807578063fb4a1ca714610826575f80fd5b8063b37fd190146106f0578063ba2a3cf51461070f578063be741fe31461072e578063c0a9c35d1461074d578063cdfb2b4e14610763578063d6b0f48414610777575f80fd5b80638401f8d11161010f5780638401f8d1146106505780638456cb591461066f5780638ab1d681146106835780638c89a0ad146106a25780638da5cb5b146106b4578063adc3a78e146106d1575f80fd5b80636c90c855146105cb5780636f9fb98a146105de578063715018a6146105f2578063729c3e0e1461060657806382584b1614610631575f80fd5b80633624aa5d116101e157806341dc222f116101a657806341dc222f146105225780634234327b1461054357806351fb012d146105625780635358fbda1461057b5780635c975abb1461058e578063650dc79a146105ac575f80fd5b80633624aa5d146104835780633782d4ec146104a25780633af32abf146104c15780633df7283d146104ef5780633f4ba83a1461050e575f80fd5b806311eac8551161023257806311eac8551461036f5780631bae91a4146103ba5780632726b506146103ee57806327614df81461041a5780632e1a7d4d1461044d578063338038601461046c575f80fd5b806303ddbda01461027857806304824e70146102a257806308f43333146102c357806310e7fbff1461032a5780631114944514610359575f80fd5b3661027457005b5f80fd5b348015610283575f80fd5b5061028f630163f50081565b6040519081526020015b60405180910390f35b3480156102ad575f80fd5b506102c16102bc366004612416565b61083a565b005b3480156102ce575f80fd5b506103196102dd366004612436565b600260208181525f9384526040808520909152918352912080546001820154928201546003909201549092919060ff8082169161010090041685565b604051610299959493929190612492565b348015610335575f80fd5b50610349610344366004612436565b610941565b6040519015158152602001610299565b348015610364575f80fd5b5061028f6276a70081565b34801561037a575f80fd5b506103a27f000000000000000000000000000000000000000000000000000000000000000081565b6040516001600160a01b039091168152602001610299565b3480156103c5575f80fd5b5061028f6103d4366004612416565b6001600160a01b03165f9081526003602052604090205490565b3480156103f9575f80fd5b5061040d610408366004612436565b610a01565b60405161029991906124c6565b348015610425575f80fd5b506103a27f000000000000000000000000000000000000000000000000000000000000000081565b348015610458575f80fd5b506102c161046736600461250a565b610a9c565b348015610477575f80fd5b5061028f6301da9c0081565b34801561048e575f80fd5b5061034961049d36600461250a565b610ac3565b3480156104ad575f80fd5b5061028f6104bc366004612416565b610af5565b3480156104cc575f80fd5b506103496104db366004612416565b60046020525f908152604090205460ff1681565b3480156104fa575f80fd5b5061028f610509366004612416565b610bfa565b348015610519575f80fd5b506102c1610cf8565b34801561052d575f80fd5b50610536610d0a565b6040516102999190612521565b34801561054e575f80fd5b5061028f61055d366004612416565b610dc1565b34801561056d575f80fd5b506005546103499060ff1681565b6102c161058936600461250a565b610e32565b348015610599575f80fd5b50600154600160a01b900460ff16610349565b3480156105b7575f80fd5b506102c16105c6366004612564565b610fdb565b6102c16105d936600461250a565b61102a565b3480156105e9575f80fd5b5061028f61118f565b3480156105fd575f80fd5b506102c161121d565b348015610611575f80fd5b5061028f610620366004612416565b60036020525f908152604090205481565b34801561063c575f80fd5b506102c161064b36600461258e565b61122e565b34801561065b575f80fd5b506102c161066a3660046125ae565b6113d6565b34801561067a575f80fd5b506102c16114e5565b34801561068e575f80fd5b506102c161069d366004612416565b6114f5565b3480156106ad575f80fd5b504761028f565b3480156106bf575f80fd5b506001546001600160a01b03166103a2565b3480156106dc575f80fd5b506102c16106eb36600461258e565b611545565b3480156106fb575f80fd5b506102c161070a36600461261d565b61171f565b34801561071a575f80fd5b5061028f610729366004612416565b6117ee565b348015610739575f80fd5b5061028f610748366004612416565b6118ca565b348015610758575f80fd5b5061028f62ed4e0081565b34801561076e575f80fd5b506102c16119c9565b348015610782575f80fd5b506102c1611a08565b348015610796575f80fd5b506102c16107a5366004612416565b611a44565b3480156107b5575f80fd5b506102c16107c436600461258e565b611abe565b3480156107d4575f80fd5b5061028f6107e3366004612416565b611bc5565b3480156107f3575f80fd5b506102c1610802366004612416565b611cc4565b348015610812575f80fd5b506102c161082136600461258e565b611cfc565b348015610831575f80fd5b5061028f611e41565b610842611e8f565b6001600160a01b0381166108695760405163d92e233d60e01b815260040160405180910390fd5b475f81900361088b57604051631f2a200560e01b815260040160405180910390fd5b5f826001600160a01b0316826040515f6040518083038185875af1925050503d805f81146108d4576040519150601f19603f3d011682016040523d82523d5f602084013e6108d9565b606091505b50509050806108fb57604051631e9acf1760e31b815260040160405180910390fd5b6040518281526001600160a01b038416905f907ffb475a842bad10d3800b61bd1a92e716051afba979b124b583bd99a2d1d7bfd5906020015b60405180910390a3505050565b6001600160a01b0382165f9081526002602081815260408084208585528252808420815160a081018352815481526001820154938101939093528084015491830191909152600381015460ff80821615156060850152859460808501926101009004909116908111156109b6576109b661245e565b60028111156109c7576109c761245e565b90525080519091505f036109de575f9150506109fb565b5f816020015182604001516109f3919061266a565b421015925050505b92915050565b610a096123bf565b6001600160a01b0383165f908152600260208181526040808420868552825292839020835160a081018552815481526001820154928101929092528083015493820193909352600383015460ff80821615156060840152919392608085019261010090920490911690811115610a8157610a8161245e565b6002811115610a9257610a9261245e565b9052509392505050565b610aa4611ec1565b610aac611ee9565b610ab7338233611f14565b610ac060015f55565b50565b5f6276a700821480610ad7575062ed4e0082145b80610ae55750630163f50082145b806109fb5750506301da9c001490565b6001600160a01b0381165f908152600360205260408120548190815b81811015610bf1576001600160a01b0385165f9081526002602081815260408084208585528252808420815160a081018352815481526001820154938101939093528084015491830191909152600381015460ff808216151560608501529293919260808501926101009092041690811115610b8f57610b8f61245e565b6002811115610ba057610ba061245e565b8152505090508060600151610bde575f81602001518260400151610bc4919061266a565b9050804210610bdc578151610bd9908661266a565b94505b505b5080610be98161267d565b915050610b11565b50909392505050565b6001600160a01b0381165f908152600360205260408120548190815b81811015610bf1576001600160a01b0385165f9081526002602081815260408084208585528252808420815160a081018352815481526001820154938101939093528084015491830191909152600381015460ff808216151560608501529293919260808501926101009092041690811115610c9457610c9461245e565b6002811115610ca557610ca561245e565b8152505090508060600151158015610cd157505f81608001516002811115610ccf57610ccf61245e565b145b15610ce5578051610ce2908561266a565b93505b5080610cf08161267d565b915050610c16565b610d00611e8f565b610d086121a2565b565b60408051600480825260a082019092526060915f9190602082016080803683370190505090506276a700815f81518110610d4657610d46612695565b60200260200101818152505062ed4e0081600181518110610d6957610d69612695565b602002602001018181525050630163f50081600281518110610d8d57610d8d612695565b6020026020010181815250506301da9c0081600381518110610db157610db1612695565b6020908102919091010152919050565b6001600160a01b0381165f908152600360205260408120548190815b81811015610bf1576001600160a01b0385165f90815260026020908152604080832084845290915290206003015460ff16610e205782610e1c8161267d565b9350505b80610e2a8161267d565b915050610ddd565b610e3a611ec1565b610e42611ee9565b60055460ff168015610e635750335f9081526004602052604090205460ff16155b15610e8157604051630b094f2760e31b815260040160405180910390fd5b345f03610ea157604051631f2a200560e01b815260040160405180910390fd5b610eaa81610ac3565b610ec757604051630f962f3d60e31b815260040160405180910390fd5b335f81815260036020818152604080842054815160a08101835234815280840188815242828501908152606083018881526001608085018181529a8a526002808952878b20878c5290985295909820835181559151948201949094559251838501559451938201805494151560ff198616811782559651919692949193909261ff00191661ffff199092169190911790610100908490811115610f6c57610f6c61245e565b021790555050335f9081526003602052604081208054925090610f8e8361267d565b90915550506040805134815260208101849052829133917ff811ab5e57a042e3e695bd443e567871efb7410da1bfe8d6f04bdfb36ca9330991015b60405180910390a350610ac060015f55565b610fe3611ec1565b610feb611ee9565b6001600160a01b0381166110125760405163d92e233d60e01b815260040160405180910390fd5b61101d338383611f14565b61102660015f55565b5050565b611032611ec1565b61103a611ee9565b60055460ff16801561105b5750335f9081526004602052604090205460ff16155b1561107957604051630b094f2760e31b815260040160405180910390fd5b345f0361109957604051631f2a200560e01b815260040160405180910390fd5b335f908152600260209081526040808320848452909152812080549091036110d45760405163411321ed60e01b815260040160405180910390fd5b600381015460ff16156110fd57604051600162df265360e01b0319815260040160405180910390fd5b60016003820154610100900460ff16600281111561111d5761111d61245e565b1461113b5760405163a2ca05e160e01b815260040160405180910390fd5b34815f015f82825461114d919061266a565b90915550508054604080513481526020810192909252839133917f8560249c545f605dc09b0d60fdf4ad801b6b6b9e9d07bcedbc1653936499203f9101610fc9565b6040516370a0823160e01b81523060048201525f907f00000000000000000000000000000000000000000000000000000000000000006001600160a01b0316906370a08231906024015b602060405180830381865afa1580156111f4573d5f803e3d5ffd5b505050506040513d601f19601f8201168201806040525081019061121891906126a9565b905090565b611225611e8f565b610d085f6121f7565b611236611ec1565b61123e611ee9565b60055460ff16801561125f5750335f9081526004602052604090205460ff16155b1561127d57604051630b094f2760e31b815260040160405180910390fd5b805f0361129d57604051631f2a200560e01b815260040160405180910390fd5b335f908152600260209081526040808320858452909152812080549091036112d85760405163411321ed60e01b815260040160405180910390fd5b600381015460ff161561130157604051600162df265360e01b0319815260040160405180910390fd5b60026003820154610100900460ff1660028111156113215761132161245e565b1461133f5760405163a2ca05e160e01b815260040160405180910390fd5b6113746001600160a01b037f000000000000000000000000000000000000000000000000000000000000000016333085612248565b81815f015f828254611386919061266a565b90915550508054604080518481526020810192909252849133917f8560249c545f605dc09b0d60fdf4ad801b6b6b9e9d07bcedbc1653936499203f91015b60405180910390a35061102660015f55565b6113de611e8f565b5f5b818110156114e0575f8383838181106113fb576113fb612695565b90506020020160208101906114109190612416565b6001600160a01b0316146114ce57600160045f85858581811061143557611435612695565b905060200201602081019061144a9190612416565b6001600160a01b0316815260208101919091526040015f20805460ff191691151591909117905582828281811061148357611483612695565b90506020020160208101906114989190612416565b6001600160a01b03167f7409cb8e690bcd1487fd4fd27dad3fa92388d201ba6f953631d6d6b26299f84960405160405180910390a25b806114d88161267d565b9150506113e0565b505050565b6114ed611e8f565b610d086122b5565b6114fd611e8f565b6001600160a01b0381165f81815260046020526040808220805460ff19169055517fe285bb51ee9ef78b36fb9eca52aede9c9f4234d2bb72917200f87005edb25a559190a250565b61154d611ec1565b611555611ee9565b60055460ff1680156115765750335f9081526004602052604090205460ff16155b1561159457604051630b094f2760e31b815260040160405180910390fd5b815f036115b457604051631f2a200560e01b815260040160405180910390fd5b6115bd81610ac3565b6115da57604051630f962f3d60e31b815260040160405180910390fd5b61160f6001600160a01b037f000000000000000000000000000000000000000000000000000000000000000016333085612248565b335f90815260036020908152604080832054815160a081018352868152928301859052429183019190915260608201929092526080810160025b9052335f908152600260208181526040808420868552825292839020845181559084015160018201559183015182820155606083015160038301805491151560ff19831681178255608086015193919261ff001990911661ffff1990911617906101009084908111156116be576116be61245e565b021790555050335f90815260036020526040812080549250906116e08361267d565b90915550506040805184815260208101849052829133917ff811ab5e57a042e3e695bd443e567871efb7410da1bfe8d6f04bdfb36ca9330991016113c4565b611727611e8f565b6001600160a01b03831661174e5760405163d92e233d60e01b815260040160405180910390fd5b6001600160a01b0381166117755760405163d92e233d60e01b815260040160405180910390fd5b815f0361179557604051631f2a200560e01b815260040160405180910390fd5b6117a96001600160a01b03841682846122f8565b806001600160a01b0316836001600160a01b03167ffb475a842bad10d3800b61bd1a92e716051afba979b124b583bd99a2d1d7bfd58460405161093491815260200190565b6001600160a01b0381165f908152600360205260408120548190815b81811015610bf1576001600160a01b0385165f9081526002602081815260408084208585528252808420815160a081018352815481526001820154938101939093528084015491830191909152600381015460ff8082161515606085015292939192608085019261010090920416908111156118885761188861245e565b60028111156118995761189961245e565b81525050905080606001516118b75780516118b4908561266a565b93505b50806118c28161267d565b91505061180a565b6001600160a01b0381165f908152600360205260408120548190815b81811015610bf1576001600160a01b0385165f9081526002602081815260408084208585528252808420815160a081018352815481526001820154938101939093528084015491830191909152600381015460ff8082161515606085015292939192608085019261010090920416908111156119645761196461245e565b60028111156119755761197561245e565b81525050905080606001511580156119a257506002816080015160028111156119a0576119a061245e565b145b156119b65780516119b3908561266a565b93505b50806119c18161267d565b9150506118e6565b6119d1611e8f565b6005805460ff191660011790556040517fe5e5846f783279948f6ec5faad38318cde86fe5be7ea845ede56d62f16c37434905f90a1565b611a10611e8f565b6005805460ff191690556040517f212c6e1d3045c9581ef0adf2504dbb1d137f52f38162ccf77a16c69d14eba5c3905f90a1565b611a4c611e8f565b6001600160a01b038116611a735760405163d92e233d60e01b815260040160405180910390fd5b6001600160a01b0381165f81815260046020526040808220805460ff19166001179055517f7409cb8e690bcd1487fd4fd27dad3fa92388d201ba6f953631d6d6b26299f8499190a250565b611ac6611ec1565b611ace611ee9565b60055460ff168015611aef5750335f9081526004602052604090205460ff16155b15611b0d57604051630b094f2760e31b815260040160405180910390fd5b815f03611b2d57604051631f2a200560e01b815260040160405180910390fd5b611b3681610ac3565b611b5357604051630f962f3d60e31b815260040160405180910390fd5b611b886001600160a01b037f000000000000000000000000000000000000000000000000000000000000000016333085612248565b335f90815260036020908152604080832054815160a081018352868152928301859052429183019190915260608201839052916080820190611649565b6001600160a01b0381165f908152600360205260408120548190815b81811015610bf1576001600160a01b0385165f9081526002602081815260408084208585528252808420815160a081018352815481526001820154938101939093528084015491830191909152600381015460ff808216151560608501529293919260808501926101009092041690811115611c5f57611c5f61245e565b6002811115611c7057611c7061245e565b8152505090508060600151158015611c9d5750600181608001516002811115611c9b57611c9b61245e565b145b15611cb1578051611cae908561266a565b93505b5080611cbc8161267d565b915050611be1565b611ccc611e8f565b6001600160a01b038116611cf35760405163d92e233d60e01b815260040160405180910390fd5b610ac0816121f7565b611d04611ec1565b611d0c611ee9565b60055460ff168015611d2d5750335f9081526004602052604090205460ff16155b15611d4b57604051630b094f2760e31b815260040160405180910390fd5b805f03611d6b57604051631f2a200560e01b815260040160405180910390fd5b335f90815260026020908152604080832085845290915281208054909103611da65760405163411321ed60e01b815260040160405180910390fd5b600381015460ff1615611dcf57604051600162df265360e01b0319815260040160405180910390fd5b5f6003820154610100900460ff166002811115611dee57611dee61245e565b14611e0c5760405163a2ca05e160e01b815260040160405180910390fd5b6113746001600160a01b037f000000000000000000000000000000000000000000000000000000000000000016333085612248565b6040516370a0823160e01b81523060048201525f907f00000000000000000000000000000000000000000000000000000000000000006001600160a01b0316906370a08231906024016111d9565b6001546001600160a01b03163314610d085760405163118cdaa760e01b81523360048201526024015b60405180910390fd5b60025f5403611ee357604051633ee5aeb560e01b815260040160405180910390fd5b60025f55565b600154600160a01b900460ff1615610d085760405163d93c066560e01b815260040160405180910390fd5b6001600160a01b0383165f90815260026020908152604080832085845290915281208054909103611f585760405163411321ed60e01b815260040160405180910390fd5b600381015460ff1615611f8157604051600162df265360e01b0319815260040160405180910390fd5b336001600160a01b03851614611faa5760405163a2ca05e160e01b815260040160405180910390fd5b5f81600101548260020154611fbf919061266a565b905080421015611fe25760405163a434547d60e01b815260040160405180910390fd5b60038201805460ff191660019081179091556003830154610100900460ff1660028111156120125761201261245e565b0361208c5781546040515f916001600160a01b038616918381818185875af1925050503d805f811461205f576040519150601f19603f3d011682016040523d82523d5f602084013e612064565b606091505b505090508061208657604051631e9acf1760e31b815260040160405180910390fd5b5061214a565b5f6003830154610100900460ff1660028111156120ab576120ab61245e565b036120ed5781546120e8906001600160a01b037f0000000000000000000000000000000000000000000000000000000000000000169085906122f8565b61214a565b60026003830154610100900460ff16600281111561210d5761210d61245e565b0361214a57815461214a906001600160a01b037f0000000000000000000000000000000000000000000000000000000000000000169085906122f8565b826001600160a01b031684866001600160a01b03167fcd14deae15888f5b07d18a1d40d9d888e7e2ebafb668c79fc153d80d07bd9611855f015460405161219391815260200190565b60405180910390a45050505050565b6121aa612329565b6001805460ff60a01b191690557f5db9ee0a495bf2e6ff9c91a7834c1ba4fdd244a5e8aa4e537bd38aeae4b073aa335b6040516001600160a01b03909116815260200160405180910390a1565b600180546001600160a01b038381166001600160a01b0319831681179093556040519116919082907f8be0079c531659141344cd1fd0a4f28419497f9722a3daafe3b4186f6b6457e0905f90a35050565b6040516001600160a01b0384811660248301528381166044830152606482018390526122af9186918216906323b872dd906084015b604051602081830303815290604052915060e01b6020820180516001600160e01b038381831617835250505050612353565b50505050565b6122bd611ee9565b6001805460ff60a01b1916600160a01b1790557f62e78cea01bee320cd4e420270b5ea74000d11b0c9f74754ebdbfc544b05a2586121da3390565b6040516001600160a01b038381166024830152604482018390526114e091859182169063a9059cbb9060640161227d565b600154600160a01b900460ff16610d0857604051638dfc202b60e01b815260040160405180910390fd5b5f8060205f8451602086015f885af180612372576040513d5f823e3d81fd5b50505f513d91508115612389578060011415612396565b6001600160a01b0384163b155b156122af57604051635274afe760e01b81526001600160a01b0385166004820152602401611eb8565b6040518060a001604052805f81526020015f81526020015f81526020015f151581526020015f60028111156123f6576123f661245e565b905290565b80356001600160a01b0381168114612411575f80fd5b919050565b5f60208284031215612426575f80fd5b61242f826123fb565b9392505050565b5f8060408385031215612447575f80fd5b612450836123fb565b946020939093013593505050565b634e487b7160e01b5f52602160045260245ffd5b6003811061248e57634e487b7160e01b5f52602160045260245ffd5b9052565b8581526020810185905260408101849052821515606082015260a081016124bc6080830184612472565b9695505050505050565b5f60a08201905082518252602083015160208301526040830151604083015260608301511515606083015260808301516125036080840182612472565b5092915050565b5f6020828403121561251a575f80fd5b5035919050565b602080825282518282018190525f9190848201906040850190845b818110156125585783518352928401929184019160010161253c565b50909695505050505050565b5f8060408385031215612575575f80fd5b82359150612585602084016123fb565b90509250929050565b5f806040838503121561259f575f80fd5b50508035926020909101359150565b5f80602083850312156125bf575f80fd5b823567ffffffffffffffff808211156125d6575f80fd5b818501915085601f8301126125e9575f80fd5b8135818111156125f7575f80fd5b8660208260051b850101111561260b575f80fd5b60209290920196919550909350505050565b5f805f6060848603121561262f575f80fd5b612638846123fb565b92506020840135915061264d604085016123fb565b90509250925092565b634e487b7160e01b5f52601160045260245ffd5b808201808211156109fb576109fb612656565b5f6001820161268e5761268e612656565b5060010190565b634e487b7160e01b5f52603260045260245ffd5b5f602082840312156126b9575f80fd5b505191905056fea2646970667358221220fa8bf466a17f8a946a6354ea56764228caba90904cc2a879b898cd31cb37a4d164736f6c63430008140033","linkReferences":{}},"methodIdentifiers":{"LOCK_12_MONTHS()":"33803860","LOCK_3_MONTHS()":"11149445","LOCK_6_MONTHS()":"c0a9c35d","LOCK_9_MONTHS()":"03ddbda0","addMultipleToWhitelist(address[])":"8401f8d1","addToWhitelist(address)":"e43252d7","depositETH(uint256)":"5358fbda","depositUSDC(uint256,uint256)":"e740010f","depositWBTC(uint256,uint256)":"adc3a78e","disableWhitelist()":"d6b0f484","enableWhitelist()":"cdfb2b4e","forwardDeposit(uint256,address)":"650dc79a","getActiveDepositCount(address)":"4234327b","getAvailableWithdrawalAmount(address)":"3782d4ec","getContractBalance()":"6f9fb98a","getContractETHBalance()":"8c89a0ad","getContractWBTCBalance()":"fb4a1ca7","getDeposit(address,uint256)":"2726b506","getTotalLockedAmount(address)":"ba2a3cf5","getTotalLockedETH(address)":"ebeaf08f","getTotalLockedUSDC(address)":"3df7283d","getTotalLockedWBTC(address)":"be741fe3","getUserDepositCount(address)":"1bae91a4","getValidLockDurations()":"41dc222f","isDepositUnlocked(address,uint256)":"10e7fbff","isValidLockDuration(uint256)":"3624aa5d","isWhitelisted(address)":"3af32abf","owner()":"8da5cb5b","pause()":"8456cb59","paused()":"5c975abb","removeFromWhitelist(address)":"8ab1d681","renounceOwnership()":"715018a6","rescueETH(address)":"04824e70","rescueTokens(address,uint256,address)":"b37fd190","topUpETH(uint256)":"6c90c855","topUpUSDC(uint256,uint256)":"f79253a1","topUpWBTC(uint256,uint256)":"82584b16","transferOwnership(address)":"f2fde38b","unpause()":"3f4ba83a","usdcToken()":"11eac855","userDepositCount(address)":"729c3e0e","userDeposits(address,uint256)":"08f43333","wbtcToken()":"27614df8","whitelistEnabled()":"51fb012d","withdraw(uint256)":"2e1a7d4d"},"id":36}