{"abi":[{"type":"constructor","inputs":[{"name":"_usdcToken","type":"address","internalType":"address"}],"stateMutability":"nonpayable"},{"type":"receive","stateMutability":"payable"},{"type":"function","name":"LOCK_12_MONTHS","inputs":[],"outputs":[{"name":"","type":"uint256","internalType":"uint256"}],"stateMutability":"view"},{"type":"function","name":"LOCK_3_MONTHS","inputs":[],"outputs":[{"name":"","type":"uint256","internalType":"uint256"}],"stateMutability":"view"},{"type":"function","name":"LOCK_6_MONTHS","inputs":[],"outputs":[{"name":"","type":"uint256","internalType":"uint256"}],"stateMutability":"view"},{"type":"function","name":"LOCK_9_MONTHS","inputs":[],"outputs":[{"name":"","type":"uint256","internalType":"uint256"}],"stateMutability":"view"},{"type":"function","name":"depositETH","inputs":[{"name":"lockDuration","type":"uint256","internalType":"uint256"},{"name":"beneficiary","type":"address","internalType":"address"}],"outputs":[],"stateMutability":"payable"},{"type":"function","name":"depositUSDC","inputs":[{"name":"amount","type":"uint256","internalType":"uint256"},{"name":"lockDuration","type":"uint256","internalType":"uint256"},{"name":"beneficiary","type":"address","internalType":"address"}],"outputs":[],"stateMutability":"nonpayable"},{"type":"function","name":"forwardDeposit","inputs":[{"name":"depositId","type":"uint256","internalType":"uint256"},{"name":"to","type":"address","internalType":"address"}],"outputs":[],"stateMutability":"nonpayable"},{"type":"function","name":"getAvailableWithdrawalAmount","inputs":[{"name":"user","type":"address","internalType":"address"}],"outputs":[{"name":"","type":"uint256","internalType":"uint256"}],"stateMutability":"view"},{"type":"function","name":"getContractBalance","inputs":[],"outputs":[{"name":"","type":"uint256","internalType":"uint256"}],"stateMutability":"view"},{"type":"function","name":"getContractETHBalance","inputs":[],"outputs":[{"name":"","type":"uint256","internalType":"uint256"}],"stateMutability":"view"},{"type":"function","name":"getDeposit","inputs":[{"name":"user","type":"address","internalType":"address"},{"name":"depositId","type":"uint256","internalType":"uint256"}],"outputs":[{"name":"","type":"tuple","internalType":"struct TimelockPiggyBank.Deposit","components":[{"name":"amount","type":"uint256","internalType":"uint256"},{"name":"lockDuration","type":"uint256","internalType":"uint256"},{"name":"depositTime","type":"uint256","internalType":"uint256"},{"name":"beneficiary","type":"address","internalType":"address"},{"name":"isWithdrawn","type":"bool","internalType":"bool"},{"name":"isETH","type":"bool","internalType":"bool"}]}],"stateMutability":"view"},{"type":"function","name":"getTotalLockedAmount","inputs":[{"name":"user","type":"address","internalType":"address"}],"outputs":[{"name":"","type":"uint256","internalType":"uint256"}],"stateMutability":"view"},{"type":"function","name":"getUserDepositCount","inputs":[{"name":"user","type":"address","internalType":"address"}],"outputs":[{"name":"","type":"uint256","internalType":"uint256"}],"stateMutability":"view"},{"type":"function","name":"getValidLockDurations","inputs":[],"outputs":[{"name":"","type":"uint256[]","internalType":"uint256[]"}],"stateMutability":"pure"},{"type":"function","name":"isDepositUnlocked","inputs":[{"name":"user","type":"address","internalType":"address"},{"name":"depositId","type":"uint256","internalType":"uint256"}],"outputs":[{"name":"","type":"bool","internalType":"bool"}],"stateMutability":"view"},{"type":"function","name":"isValidLockDuration","inputs":[{"name":"lockDuration","type":"uint256","internalType":"uint256"}],"outputs":[{"name":"","type":"bool","internalType":"bool"}],"stateMutability":"pure"},{"type":"function","name":"owner","inputs":[],"outputs":[{"name":"","type":"address","internalType":"address"}],"stateMutability":"view"},{"type":"function","name":"pause","inputs":[],"outputs":[],"stateMutability":"nonpayable"},{"type":"function","name":"paused","inputs":[],"outputs":[{"name":"","type":"bool","internalType":"bool"}],"stateMutability":"view"},{"type":"function","name":"renounceOwnership","inputs":[],"outputs":[],"stateMutability":"nonpayable"},{"type":"function","name":"rescueETH","inputs":[{"name":"to","type":"address","internalType":"address"}],"outputs":[],"stateMutability":"nonpayable"},{"type":"function","name":"rescueTokens","inputs":[{"name":"token","type":"address","internalType":"address"},{"name":"amount","type":"uint256","internalType":"uint256"},{"name":"to","type":"address","internalType":"address"}],"outputs":[],"stateMutability":"nonpayable"},{"type":"function","name":"transferOwnership","inputs":[{"name":"newOwner","type":"address","internalType":"address"}],"outputs":[],"stateMutability":"nonpayable"},{"type":"function","name":"unpause","inputs":[],"outputs":[],"stateMutability":"nonpayable"},{"type":"function","name":"usdcToken","inputs":[],"outputs":[{"name":"","type":"address","internalType":"contract IERC20"}],"stateMutability":"view"},{"type":"function","name":"userDepositCount","inputs":[{"name":"","type":"address","internalType":"address"}],"outputs":[{"name":"","type":"uint256","internalType":"uint256"}],"stateMutability":"view"},{"type":"function","name":"userDeposits","inputs":[{"name":"","type":"address","internalType":"address"},{"name":"","type":"uint256","internalType":"uint256"}],"outputs":[{"name":"amount","type":"uint256","internalType":"uint256"},{"name":"lockDuration","type":"uint256","internalType":"uint256"},{"name":"depositTime","type":"uint256","internalType":"uint256"},{"name":"beneficiary","type":"address","internalType":"address"},{"name":"isWithdrawn","type":"bool","internalType":"bool"},{"name":"isETH","type":"bool","internalType":"bool"}],"stateMutability":"view"},{"type":"function","name":"withdraw","inputs":[{"name":"depositId","type":"uint256","internalType":"uint256"}],"outputs":[],"stateMutability":"nonpayable"},{"type":"event","name":"DepositCreated","inputs":[{"name":"user","type":"address","indexed":true,"internalType":"address"},{"name":"depositId","type":"uint256","indexed":true,"internalType":"uint256"},{"name":"amount","type":"uint256","indexed":false,"internalType":"uint256"},{"name":"lockDuration","type":"uint256","indexed":false,"internalType":"uint256"},{"name":"beneficiary","type":"address","indexed":false,"internalType":"address"}],"anonymous":false},{"type":"event","name":"DepositForwarded","inputs":[{"name":"user","type":"address","indexed":true,"internalType":"address"},{"name":"depositId","type":"uint256","indexed":true,"internalType":"uint256"},{"name":"amount","type":"uint256","indexed":false,"internalType":"uint256"},{"name":"to","type":"address","indexed":true,"internalType":"address"}],"anonymous":false},{"type":"event","name":"DepositWithdrawn","inputs":[{"name":"user","type":"address","indexed":true,"internalType":"address"},{"name":"depositId","type":"uint256","indexed":true,"internalType":"uint256"},{"name":"amount","type":"uint256","indexed":false,"internalType":"uint256"},{"name":"to","type":"address","indexed":true,"internalType":"address"}],"anonymous":false},{"type":"event","name":"OwnershipTransferred","inputs":[{"name":"previousOwner","type":"address","indexed":true,"internalType":"address"},{"name":"newOwner","type":"address","indexed":true,"internalType":"address"}],"anonymous":false},{"type":"event","name":"Paused","inputs":[{"name":"account","type":"address","indexed":false,"internalType":"address"}],"anonymous":false},{"type":"event","name":"TokensRescued","inputs":[{"name":"token","type":"address","indexed":true,"internalType":"address"},{"name":"amount","type":"uint256","indexed":false,"internalType":"uint256"},{"name":"to","type":"address","indexed":true,"internalType":"address"}],"anonymous":false},{"type":"event","name":"Unpaused","inputs":[{"name":"account","type":"address","indexed":false,"internalType":"address"}],"anonymous":false},{"type":"error","name":"DepositAlreadyWithdrawn","inputs":[]},{"type":"error","name":"DepositNotFound","inputs":[]},{"type":"error","name":"DepositNotUnlocked","inputs":[]},{"type":"error","name":"EnforcedPause","inputs":[]},{"type":"error","name":"ExpectedPause","inputs":[]},{"type":"error","name":"InsufficientBalance","inputs":[]},{"type":"error","name":"InvalidDepositId","inputs":[]},{"type":"error","name":"InvalidLockDuration","inputs":[]},{"type":"error","name":"OwnableInvalidOwner","inputs":[{"name":"owner","type":"address","internalType":"address"}]},{"type":"error","name":"OwnableUnauthorizedAccount","inputs":[{"name":"account","type":"address","internalType":"address"}]},{"type":"error","name":"ReentrancyGuardReentrantCall","inputs":[]},{"type":"error","name":"SafeERC20FailedOperation","inputs":[{"name":"token","type":"address","internalType":"address"}]},{"type":"error","name":"ZeroAddress","inputs":[]},{"type":"error","name":"ZeroAmount","inputs":[]}],"bytecode":{"object":"0x60a060405234801561000f575f80fd5b506040516200189438038062001894833981016040819052610030916100ec565b60015f55338061005957604051631e4fbdf760e01b81525f600482015260240160405180910390fd5b6100628161009b565b506001600160a01b03811661008a5760405163d92e233d60e01b815260040160405180910390fd5b6001600160a01b0316608052610119565b600180546001600160a01b038381166001600160a01b0319831681179093556040519116919082907f8be0079c531659141344cd1fd0a4f28419497f9722a3daafe3b4186f6b6457e0905f90a35050565b5f602082840312156100fc575f80fd5b81516001600160a01b0381168114610112575f80fd5b9392505050565b60805161174d620001475f395f81816102fd01528181610ce701528181610e0801526112c7015261174d5ff3fe6080604052600436106101b2575f3560e01c806356150edf116100e75780638c89a0ad11610087578063b37fd19011610062578063b37fd19014610634578063ba2a3cf514610653578063c0a9c35d14610672578063f2fde38b14610687575f80fd5b80638c89a0ad146105e65780638da5cb5b146105f8578063a08fcc1a14610615575f80fd5b80636f9fb98a116100c25780636f9fb98a1461057f578063715018a614610593578063729c3e0e146105a75780638456cb59146105d2575f80fd5b806356150edf1461052f5780635c975abb14610542578063650dc79a14610560575f80fd5b80632726b506116101525780633624aa5d1161012d5780633624aa5d146104bc5780633782d4ec146104db5780633f4ba83a146104fa57806341dc222f1461050e575f80fd5b80632726b5061461036b5780632e1a7d4d1461048857806333803860146104a7575f80fd5b806310e7fbff1161018d57806310e7fbff146102a957806311149445146102d857806311eac855146102ec5780631bae91a414610337575f80fd5b806303ddbda0146101bd57806304824e70146101e557806308f4333314610206575f80fd5b366101b957005b5f80fd5b3480156101c8575f80fd5b506101d261021c81565b6040519081526020015b60405180910390f35b3480156101f0575f80fd5b506102046101ff36600461157f565b6106a6565b005b348015610211575f80fd5b5061026f61022036600461159f565b600260208181525f938452604080852090915291835291208054600182015492820154600390920154909291906001600160a01b0381169060ff600160a01b8204811691600160a81b90041686565b604080519687526020870195909552938501929092526001600160a01b0316606084015215156080830152151560a082015260c0016101dc565b3480156102b4575f80fd5b506102c86102c336600461159f565b6107ad565b60405190151581526020016101dc565b3480156102e3575f80fd5b506101d260b481565b3480156102f7575f80fd5b5061031f7f000000000000000000000000000000000000000000000000000000000000000081565b6040516001600160a01b0390911681526020016101dc565b348015610342575f80fd5b506101d261035136600461157f565b6001600160a01b03165f9081526003602052604090205490565b348015610376575f80fd5b5061043461038536600461159f565b6040805160c0810182525f80825260208201819052918101829052606081018290526080810182905260a0810191909152506001600160a01b038083165f908152600260208181526040808420868552825292839020835160c08101855281548152600182015492810192909252918201549281019290925260030154918216606082015260ff600160a01b8304811615156080830152600160a81b909204909116151560a082015292915050565b6040516101dc91908151815260208083015190820152604080830151908201526060808301516001600160a01b03169082015260808083015115159082015260a09182015115159181019190915260c00190565b348015610493575f80fd5b506102046104a23660046115c7565b610858565b3480156104b2575f80fd5b506101d26102d081565b3480156104c7575f80fd5b506102c86104d63660046115c7565b61087f565b3480156104e6575f80fd5b506101d26104f536600461157f565b6108aa565b348015610505575f80fd5b50610204610995565b348015610519575f80fd5b506105226109a7565b6040516101dc91906115de565b61020461053d366004611621565b610a57565b34801561054d575f80fd5b50600154600160a01b900460ff166102c8565b34801561056b575f80fd5b5061020461057a366004611621565b610c85565b34801561058a575f80fd5b506101d2610cd0565b34801561059e575f80fd5b50610204610d5d565b3480156105b2575f80fd5b506101d26105c136600461157f565b60036020525f908152604090205481565b3480156105dd575f80fd5b50610204610d6e565b3480156105f1575f80fd5b50476101d2565b348015610603575f80fd5b506001546001600160a01b031661031f565b348015610620575f80fd5b5061020461062f36600461164b565b610d7e565b34801561063f575f80fd5b5061020461064e36600461167d565b610f56565b34801561065e575f80fd5b506101d261066d36600461157f565b611025565b34801561067d575f80fd5b506101d261016881565b348015610692575f80fd5b506102046106a136600461157f565b61108a565b6106ae6110c2565b6001600160a01b0381166106d55760405163d92e233d60e01b815260040160405180910390fd5b475f8190036106f757604051631f2a200560e01b815260040160405180910390fd5b5f826001600160a01b0316826040515f6040518083038185875af1925050503d805f8114610740576040519150601f19603f3d011682016040523d82523d5f602084013e610745565b606091505b505090508061076757604051631e9acf1760e31b815260040160405180910390fd5b6040518281526001600160a01b038416905f907ffb475a842bad10d3800b61bd1a92e716051afba979b124b583bd99a2d1d7bfd5906020015b60405180910390a3505050565b6001600160a01b038083165f9081526002602081815260408084208685528252808420815160c0810183528154808252600183015494820194909452938101549184019190915260030154938416606083015260ff600160a01b8504811615156080840152600160a81b909404909316151560a082015290918203610835575f915050610852565b5f8160200151826040015161084a91906116c1565b421015925050505b92915050565b6108606110f4565b61086861111c565b610873338233611147565b61087c60015f55565b50565b5f60b4821480610890575061016882145b8061089c575061021c82145b806108525750506102d01490565b6001600160a01b0381165f908152600360205260408120548190815b8181101561098c576001600160a01b038086165f908152600260208181526040808420868552825292839020835160c08101855281548152600182015492810192909252918201549281019290925260030154918216606082015260ff600160a01b83048116151560808301819052600160a81b90930416151560a082015290610979575f8160200151826040015161095f91906116c1565b905080421061097757815161097490866116c1565b94505b505b5080610984816116d4565b9150506108c6565b50909392505050565b61099d6110c2565b6109a5611347565b565b60408051600480825260a082019092526060915f91906020820160808036833701905050905060b4815f815181106109e1576109e16116ec565b60200260200101818152505061016881600181518110610a0357610a036116ec565b60200260200101818152505061021c81600281518110610a2557610a256116ec565b6020026020010181815250506102d081600381518110610a4757610a476116ec565b6020908102919091010152919050565b610a5f6110f4565b610a6761111c565b345f03610a8757604051631f2a200560e01b815260040160405180910390fd5b6001600160a01b038116610aae5760405163d92e233d60e01b815260040160405180910390fd5b610ab78261087f565b610ad457604051630f962f3d60e31b815260040160405180910390fd5b5f60035f336001600160a01b03166001600160a01b031681526020019081526020015f205490506040518060c00160405280348152602001848152602001428152602001836001600160a01b031681526020015f151581526020016001151581525060025f336001600160a01b03166001600160a01b031681526020019081526020015f205f8381526020019081526020015f205f820151815f015560208201518160010155604082015181600201556060820151816003015f6101000a8154816001600160a01b0302191690836001600160a01b0316021790555060808201518160030160146101000a81548160ff02191690831515021790555060a08201518160030160156101000a81548160ff02191690831515021790555090505060035f336001600160a01b03166001600160a01b031681526020019081526020015f205f815480929190610c26906116d4565b909155505060408051348152602081018590526001600160a01b038416818301529051829133917f8f7e502ff174c052f8b45eba232f18476491048754c5f5a69769b6453a4ff6e49181900360600190a350610c8160015f55565b5050565b610c8d6110f4565b610c9561111c565b6001600160a01b038116610cbc5760405163d92e233d60e01b815260040160405180910390fd5b610cc7338383611147565b610c8160015f55565b6040516370a0823160e01b81523060048201525f907f00000000000000000000000000000000000000000000000000000000000000006001600160a01b0316906370a0823190602401602060405180830381865afa158015610d34573d5f803e3d5ffd5b505050506040513d601f19601f82011682018060405250810190610d589190611700565b905090565b610d656110c2565b6109a55f61139c565b610d766110c2565b6109a56113ed565b610d866110f4565b610d8e61111c565b825f03610dae57604051631f2a200560e01b815260040160405180910390fd5b6001600160a01b038116610dd55760405163d92e233d60e01b815260040160405180910390fd5b610dde8261087f565b610dfb57604051630f962f3d60e31b815260040160405180910390fd5b610e306001600160a01b037f000000000000000000000000000000000000000000000000000000000000000016333086611430565b335f8181526003602081815260408084208054825160c0810184528a81528085018a8152428286019081526001600160a01b038b811660608501908152608085018b815260a086018c81528d8d526002808c528a8e20898f528c52998d20965187559451600187015592519785019790975595519288018054915192511515600160a81b0260ff60a81b19931515600160a01b026001600160a81b03199093169490971693909317171693909317909255948452919052825490929091610ef6836116d4565b909155505060408051858152602081018590526001600160a01b038416818301529051829133917f8f7e502ff174c052f8b45eba232f18476491048754c5f5a69769b6453a4ff6e49181900360600190a350610f5160015f55565b505050565b610f5e6110c2565b6001600160a01b038316610f855760405163d92e233d60e01b815260040160405180910390fd5b6001600160a01b038116610fac5760405163d92e233d60e01b815260040160405180910390fd5b815f03610fcc57604051631f2a200560e01b815260040160405180910390fd5b610fe06001600160a01b038416828461149d565b806001600160a01b0316836001600160a01b03167ffb475a842bad10d3800b61bd1a92e716051afba979b124b583bd99a2d1d7bfd5846040516107a091815260200190565b6001600160a01b0381165f908152600360205260408120548190815b8181101561098c576001600160a01b0385165f90815260026020908152604080832084845290915290205461107690846116c1565b925080611082816116d4565b915050611041565b6110926110c2565b6001600160a01b0381166110b95760405163d92e233d60e01b815260040160405180910390fd5b61087c8161139c565b6001546001600160a01b031633146109a55760405163118cdaa760e01b81523360048201526024015b60405180910390fd5b60025f540361111657604051633ee5aeb560e01b815260040160405180910390fd5b60025f55565b600154600160a01b900460ff16156109a55760405163d93c066560e01b815260040160405180910390fd5b6001600160a01b0383165f9081526002602090815260408083208584529091528120805490910361118b5760405163411321ed60e01b815260040160405180910390fd5b6003810154600160a01b900460ff16156111bb57604051600162df265360e01b0319815260040160405180910390fd5b336001600160a01b038516146111e45760405163a2ca05e160e01b815260040160405180910390fd5b5f816001015482600201546111f991906116c1565b90508042101561121c5760405163a434547d60e01b815260040160405180910390fd5b60038201805460ff60a01b1916600160a01b1790819055600160a81b900460ff16156112b75781546040515f916001600160a01b038616918381818185875af1925050503d805f811461128a576040519150601f19603f3d011682016040523d82523d5f602084013e61128f565b606091505b50509050806112b157604051631e9acf1760e31b815260040160405180910390fd5b506112ef565b81546112ef906001600160a01b037f00000000000000000000000000000000000000000000000000000000000000001690859061149d565b826001600160a01b031684866001600160a01b03167fcd14deae15888f5b07d18a1d40d9d888e7e2ebafb668c79fc153d80d07bd9611855f015460405161133891815260200190565b60405180910390a45050505050565b61134f6114ce565b6001805460ff60a01b191690557f5db9ee0a495bf2e6ff9c91a7834c1ba4fdd244a5e8aa4e537bd38aeae4b073aa335b6040516001600160a01b03909116815260200160405180910390a1565b600180546001600160a01b038381166001600160a01b0319831681179093556040519116919082907f8be0079c531659141344cd1fd0a4f28419497f9722a3daafe3b4186f6b6457e0905f90a35050565b6113f561111c565b6001805460ff60a01b1916600160a01b1790557f62e78cea01bee320cd4e420270b5ea74000d11b0c9f74754ebdbfc544b05a25861137f3390565b6040516001600160a01b0384811660248301528381166044830152606482018390526114979186918216906323b872dd906084015b604051602081830303815290604052915060e01b6020820180516001600160e01b0383818316178352505050506114f8565b50505050565b6040516001600160a01b03838116602483015260448201839052610f5191859182169063a9059cbb90606401611465565b600154600160a01b900460ff166109a557604051638dfc202b60e01b815260040160405180910390fd5b5f8060205f8451602086015f885af180611517576040513d5f823e3d81fd5b50505f513d9150811561152e57806001141561153b565b6001600160a01b0384163b155b1561149757604051635274afe760e01b81526001600160a01b03851660048201526024016110eb565b80356001600160a01b038116811461157a575f80fd5b919050565b5f6020828403121561158f575f80fd5b61159882611564565b9392505050565b5f80604083850312156115b0575f80fd5b6115b983611564565b946020939093013593505050565b5f602082840312156115d7575f80fd5b5035919050565b602080825282518282018190525f9190848201906040850190845b81811015611615578351835292840192918401916001016115f9565b50909695505050505050565b5f8060408385031215611632575f80fd5b8235915061164260208401611564565b90509250929050565b5f805f6060848603121561165d575f80fd5b833592506020840135915061167460408501611564565b90509250925092565b5f805f6060848603121561168f575f80fd5b61169884611564565b92506020840135915061167460408501611564565b634e487b7160e01b5f52601160045260245ffd5b80820180821115610852576108526116ad565b5f600182016116e5576116e56116ad565b5060010190565b634e487b7160e01b5f52603260045260245ffd5b5f60208284031215611710575f80fd5b505191905056fea2646970667358221220f765bcfb00b0db15fda65cf01adb22321a17a7cc2886aa93526d63aef122625964736f6c63430008140033","linkReferences":{}},"methodIdentifiers":{"LOCK_12_MONTHS()":"33803860","LOCK_3_MONTHS()":"11149445","LOCK_6_MONTHS()":"c0a9c35d","LOCK_9_MONTHS()":"03ddbda0","depositETH(uint256,address)":"56150edf","depositUSDC(uint256,uint256,address)":"a08fcc1a","forwardDeposit(uint256,address)":"650dc79a","getAvailableWithdrawalAmount(address)":"3782d4ec","getContractBalance()":"6f9fb98a","getContractETHBalance()":"8c89a0ad","getDeposit(address,uint256)":"2726b506","getTotalLockedAmount(address)":"ba2a3cf5","getUserDepositCount(address)":"1bae91a4","getValidLockDurations()":"41dc222f","isDepositUnlocked(address,uint256)":"10e7fbff","isValidLockDuration(uint256)":"3624aa5d","owner()":"8da5cb5b","pause()":"8456cb59","paused()":"5c975abb","renounceOwnership()":"715018a6","rescueETH(address)":"04824e70","rescueTokens(address,uint256,address)":"b37fd190","transferOwnership(address)":"f2fde38b","unpause()":"3f4ba83a","usdcToken()":"11eac855","userDepositCount(address)":"729c3e0e","userDeposits(address,uint256)":"08f43333","withdraw(uint256)":"2e1a7d4d"},"id":36}