{"abi":[{"type":"constructor","inputs":[{"name":"_usdcToken","type":"address","internalType":"address"}],"stateMutability":"nonpayable"},{"type":"receive","stateMutability":"payable"},{"type":"function","name":"LOCK_12_MONTHS","inputs":[],"outputs":[{"name":"","type":"uint256","internalType":"uint256"}],"stateMutability":"view"},{"type":"function","name":"LOCK_3_MONTHS","inputs":[],"outputs":[{"name":"","type":"uint256","internalType":"uint256"}],"stateMutability":"view"},{"type":"function","name":"LOCK_6_MONTHS","inputs":[],"outputs":[{"name":"","type":"uint256","internalType":"uint256"}],"stateMutability":"view"},{"type":"function","name":"LOCK_9_MONTHS","inputs":[],"outputs":[{"name":"","type":"uint256","internalType":"uint256"}],"stateMutability":"view"},{"type":"function","name":"depositETH","inputs":[{"name":"lockDuration","type":"uint256","internalType":"uint256"},{"name":"beneficiary","type":"address","internalType":"address"}],"outputs":[],"stateMutability":"payable"},{"type":"function","name":"depositUSDC","inputs":[{"name":"amount","type":"uint256","internalType":"uint256"},{"name":"lockDuration","type":"uint256","internalType":"uint256"},{"name":"beneficiary","type":"address","internalType":"address"}],"outputs":[],"stateMutability":"nonpayable"},{"type":"function","name":"forwardDeposit","inputs":[{"name":"depositId","type":"uint256","internalType":"uint256"},{"name":"to","type":"address","internalType":"address"}],"outputs":[],"stateMutability":"nonpayable"},{"type":"function","name":"getActiveDepositCount","inputs":[{"name":"user","type":"address","internalType":"address"}],"outputs":[{"name":"","type":"uint256","internalType":"uint256"}],"stateMutability":"view"},{"type":"function","name":"getAvailableWithdrawalAmount","inputs":[{"name":"user","type":"address","internalType":"address"}],"outputs":[{"name":"","type":"uint256","internalType":"uint256"}],"stateMutability":"view"},{"type":"function","name":"getContractBalance","inputs":[],"outputs":[{"name":"","type":"uint256","internalType":"uint256"}],"stateMutability":"view"},{"type":"function","name":"getContractETHBalance","inputs":[],"outputs":[{"name":"","type":"uint256","internalType":"uint256"}],"stateMutability":"view"},{"type":"function","name":"getDeposit","inputs":[{"name":"user","type":"address","internalType":"address"},{"name":"depositId","type":"uint256","internalType":"uint256"}],"outputs":[{"name":"","type":"tuple","internalType":"struct TimelockPiggyBank.Deposit","components":[{"name":"amount","type":"uint256","internalType":"uint256"},{"name":"lockDuration","type":"uint256","internalType":"uint256"},{"name":"depositTime","type":"uint256","internalType":"uint256"},{"name":"beneficiary","type":"address","internalType":"address"},{"name":"isWithdrawn","type":"bool","internalType":"bool"},{"name":"isETH","type":"bool","internalType":"bool"}]}],"stateMutability":"view"},{"type":"function","name":"getTotalLockedAmount","inputs":[{"name":"user","type":"address","internalType":"address"}],"outputs":[{"name":"","type":"uint256","internalType":"uint256"}],"stateMutability":"view"},{"type":"function","name":"getTotalLockedETH","inputs":[{"name":"user","type":"address","internalType":"address"}],"outputs":[{"name":"","type":"uint256","internalType":"uint256"}],"stateMutability":"view"},{"type":"function","name":"getTotalLockedUSDC","inputs":[{"name":"user","type":"address","internalType":"address"}],"outputs":[{"name":"","type":"uint256","internalType":"uint256"}],"stateMutability":"view"},{"type":"function","name":"getUserDepositCount","inputs":[{"name":"user","type":"address","internalType":"address"}],"outputs":[{"name":"","type":"uint256","internalType":"uint256"}],"stateMutability":"view"},{"type":"function","name":"getValidLockDurations","inputs":[],"outputs":[{"name":"","type":"uint256[]","internalType":"uint256[]"}],"stateMutability":"pure"},{"type":"function","name":"isDepositUnlocked","inputs":[{"name":"user","type":"address","internalType":"address"},{"name":"depositId","type":"uint256","internalType":"uint256"}],"outputs":[{"name":"","type":"bool","internalType":"bool"}],"stateMutability":"view"},{"type":"function","name":"isValidLockDuration","inputs":[{"name":"lockDuration","type":"uint256","internalType":"uint256"}],"outputs":[{"name":"","type":"bool","internalType":"bool"}],"stateMutability":"pure"},{"type":"function","name":"owner","inputs":[],"outputs":[{"name":"","type":"address","internalType":"address"}],"stateMutability":"view"},{"type":"function","name":"pause","inputs":[],"outputs":[],"stateMutability":"nonpayable"},{"type":"function","name":"paused","inputs":[],"outputs":[{"name":"","type":"bool","internalType":"bool"}],"stateMutability":"view"},{"type":"function","name":"renounceOwnership","inputs":[],"outputs":[],"stateMutability":"nonpayable"},{"type":"function","name":"rescueETH","inputs":[{"name":"to","type":"address","internalType":"address"}],"outputs":[],"stateMutability":"nonpayable"},{"type":"function","name":"rescueTokens","inputs":[{"name":"token","type":"address","internalType":"address"},{"name":"amount","type":"uint256","internalType":"uint256"},{"name":"to","type":"address","internalType":"address"}],"outputs":[],"stateMutability":"nonpayable"},{"type":"function","name":"transferOwnership","inputs":[{"name":"newOwner","type":"address","internalType":"address"}],"outputs":[],"stateMutability":"nonpayable"},{"type":"function","name":"unpause","inputs":[],"outputs":[],"stateMutability":"nonpayable"},{"type":"function","name":"usdcToken","inputs":[],"outputs":[{"name":"","type":"address","internalType":"contract IERC20"}],"stateMutability":"view"},{"type":"function","name":"userDepositCount","inputs":[{"name":"","type":"address","internalType":"address"}],"outputs":[{"name":"","type":"uint256","internalType":"uint256"}],"stateMutability":"view"},{"type":"function","name":"userDeposits","inputs":[{"name":"","type":"address","internalType":"address"},{"name":"","type":"uint256","internalType":"uint256"}],"outputs":[{"name":"amount","type":"uint256","internalType":"uint256"},{"name":"lockDuration","type":"uint256","internalType":"uint256"},{"name":"depositTime","type":"uint256","internalType":"uint256"},{"name":"beneficiary","type":"address","internalType":"address"},{"name":"isWithdrawn","type":"bool","internalType":"bool"},{"name":"isETH","type":"bool","internalType":"bool"}],"stateMutability":"view"},{"type":"function","name":"withdraw","inputs":[{"name":"depositId","type":"uint256","internalType":"uint256"}],"outputs":[],"stateMutability":"nonpayable"},{"type":"event","name":"DepositCreated","inputs":[{"name":"user","type":"address","indexed":true,"internalType":"address"},{"name":"depositId","type":"uint256","indexed":true,"internalType":"uint256"},{"name":"amount","type":"uint256","indexed":false,"internalType":"uint256"},{"name":"lockDuration","type":"uint256","indexed":false,"internalType":"uint256"},{"name":"beneficiary","type":"address","indexed":false,"internalType":"address"}],"anonymous":false},{"type":"event","name":"DepositForwarded","inputs":[{"name":"user","type":"address","indexed":true,"internalType":"address"},{"name":"depositId","type":"uint256","indexed":true,"internalType":"uint256"},{"name":"amount","type":"uint256","indexed":false,"internalType":"uint256"},{"name":"to","type":"address","indexed":true,"internalType":"address"}],"anonymous":false},{"type":"event","name":"DepositWithdrawn","inputs":[{"name":"user","type":"address","indexed":true,"internalType":"address"},{"name":"depositId","type":"uint256","indexed":true,"internalType":"uint256"},{"name":"amount","type":"uint256","indexed":false,"internalType":"uint256"},{"name":"to","type":"address","indexed":true,"internalType":"address"}],"anonymous":false},{"type":"event","name":"OwnershipTransferred","inputs":[{"name":"previousOwner","type":"address","indexed":true,"internalType":"address"},{"name":"newOwner","type":"address","indexed":true,"internalType":"address"}],"anonymous":false},{"type":"event","name":"Paused","inputs":[{"name":"account","type":"address","indexed":false,"internalType":"address"}],"anonymous":false},{"type":"event","name":"TokensRescued","inputs":[{"name":"token","type":"address","indexed":true,"internalType":"address"},{"name":"amount","type":"uint256","indexed":false,"internalType":"uint256"},{"name":"to","type":"address","indexed":true,"internalType":"address"}],"anonymous":false},{"type":"event","name":"Unpaused","inputs":[{"name":"account","type":"address","indexed":false,"internalType":"address"}],"anonymous":false},{"type":"error","name":"DepositAlreadyWithdrawn","inputs":[]},{"type":"error","name":"DepositNotFound","inputs":[]},{"type":"error","name":"DepositNotUnlocked","inputs":[]},{"type":"error","name":"EnforcedPause","inputs":[]},{"type":"error","name":"ExpectedPause","inputs":[]},{"type":"error","name":"InsufficientBalance","inputs":[]},{"type":"error","name":"InvalidDepositId","inputs":[]},{"type":"error","name":"InvalidLockDuration","inputs":[]},{"type":"error","name":"OwnableInvalidOwner","inputs":[{"name":"owner","type":"address","internalType":"address"}]},{"type":"error","name":"OwnableUnauthorizedAccount","inputs":[{"name":"account","type":"address","internalType":"address"}]},{"type":"error","name":"ReentrancyGuardReentrantCall","inputs":[]},{"type":"error","name":"SafeERC20FailedOperation","inputs":[{"name":"token","type":"address","internalType":"address"}]},{"type":"error","name":"ZeroAddress","inputs":[]},{"type":"error","name":"ZeroAmount","inputs":[]}],"bytecode":{"object":"0x60a060405234801562000010575f80fd5b5060405162001b9638038062001b968339810160408190526200003391620000f4565b60015f5533806200005d57604051631e4fbdf760e01b81525f600482015260240160405180910390fd5b6200006881620000a3565b506001600160a01b038116620000915760405163d92e233d60e01b815260040160405180910390fd5b6001600160a01b031660805262000123565b600180546001600160a01b038381166001600160a01b0319831681179093556040519116919082907f8be0079c531659141344cd1fd0a4f28419497f9722a3daafe3b4186f6b6457e0905f90a35050565b5f6020828403121562000105575f80fd5b81516001600160a01b03811681146200011c575f80fd5b9392505050565b608051611a45620001515f395f818161031e01528181610eb001528181610fd101526115bf0152611a455ff3fe6080604052600436106101d3575f3560e01c80634234327b116100fd5780638c89a0ad11610092578063ba2a3cf511610062578063ba2a3cf5146106b2578063c0a9c35d146106d1578063ebeaf08f146106e6578063f2fde38b14610705575f80fd5b80638c89a0ad146106455780638da5cb5b14610657578063a08fcc1a14610674578063b37fd19014610693575f80fd5b80636f9fb98a116100cd5780636f9fb98a146105de578063715018a6146105f2578063729c3e0e146106065780638456cb5914610631575f80fd5b80634234327b1461056f57806356150edf1461058e5780635c975abb146105a1578063650dc79a146105bf575f80fd5b80632726b506116101735780633782d4ec116101435780633782d4ec146104fc5780633df7283d1461051b5780633f4ba83a1461053a57806341dc222f1461054e575f80fd5b80632726b5061461038c5780632e1a7d4d146104a957806333803860146104c85780633624aa5d146104dd575f80fd5b806310e7fbff116101ae57806310e7fbff146102ca57806311149445146102f957806311eac8551461030d5780631bae91a414610358575f80fd5b806303ddbda0146101de57806304824e701461020657806308f4333314610227575f80fd5b366101da57005b5f80fd5b3480156101e9575f80fd5b506101f361021c81565b6040519081526020015b60405180910390f35b348015610211575f80fd5b50610225610220366004611877565b610724565b005b348015610232575f80fd5b50610290610241366004611897565b600260208181525f938452604080852090915291835291208054600182015492820154600390920154909291906001600160a01b0381169060ff600160a01b8204811691600160a81b90041686565b604080519687526020870195909552938501929092526001600160a01b0316606084015215156080830152151560a082015260c0016101fd565b3480156102d5575f80fd5b506102e96102e4366004611897565b61082b565b60405190151581526020016101fd565b348015610304575f80fd5b506101f360b481565b348015610318575f80fd5b506103407f000000000000000000000000000000000000000000000000000000000000000081565b6040516001600160a01b0390911681526020016101fd565b348015610363575f80fd5b506101f3610372366004611877565b6001600160a01b03165f9081526003602052604090205490565b348015610397575f80fd5b506104556103a6366004611897565b6040805160c0810182525f80825260208201819052918101829052606081018290526080810182905260a0810191909152506001600160a01b038083165f908152600260208181526040808420868552825292839020835160c08101855281548152600182015492810192909252918201549281019290925260030154918216606082015260ff600160a01b8304811615156080830152600160a81b909204909116151560a082015292915050565b6040516101fd91908151815260208083015190820152604080830151908201526060808301516001600160a01b03169082015260808083015115159082015260a09182015115159181019190915260c00190565b3480156104b4575f80fd5b506102256104c33660046118bf565b6108d6565b3480156104d3575f80fd5b506101f36102d081565b3480156104e8575f80fd5b506102e96104f73660046118bf565b6108fd565b348015610507575f80fd5b506101f3610516366004611877565b610928565b348015610526575f80fd5b506101f3610535366004611877565b610a13565b348015610545575f80fd5b50610225610ae6565b348015610559575f80fd5b50610562610af8565b6040516101fd91906118d6565b34801561057a575f80fd5b506101f3610589366004611877565b610ba8565b61022561059c366004611919565b610c20565b3480156105ac575f80fd5b50600154600160a01b900460ff166102e9565b3480156105ca575f80fd5b506102256105d9366004611919565b610e4e565b3480156105e9575f80fd5b506101f3610e99565b3480156105fd575f80fd5b50610225610f26565b348015610611575f80fd5b506101f3610620366004611877565b60036020525f908152604090205481565b34801561063c575f80fd5b50610225610f37565b348015610650575f80fd5b50476101f3565b348015610662575f80fd5b506001546001600160a01b0316610340565b34801561067f575f80fd5b5061022561068e366004611943565b610f47565b34801561069e575f80fd5b506102256106ad366004611975565b61111f565b3480156106bd575f80fd5b506101f36106cc366004611877565b6111ee565b3480156106dc575f80fd5b506101f361016881565b3480156106f1575f80fd5b506101f3610700366004611877565b6112b0565b348015610710575f80fd5b5061022561071f366004611877565b611382565b61072c6113ba565b6001600160a01b0381166107535760405163d92e233d60e01b815260040160405180910390fd5b475f81900361077557604051631f2a200560e01b815260040160405180910390fd5b5f826001600160a01b0316826040515f6040518083038185875af1925050503d805f81146107be576040519150601f19603f3d011682016040523d82523d5f602084013e6107c3565b606091505b50509050806107e557604051631e9acf1760e31b815260040160405180910390fd5b6040518281526001600160a01b038416905f907ffb475a842bad10d3800b61bd1a92e716051afba979b124b583bd99a2d1d7bfd5906020015b60405180910390a3505050565b6001600160a01b038083165f9081526002602081815260408084208685528252808420815160c0810183528154808252600183015494820194909452938101549184019190915260030154938416606083015260ff600160a01b8504811615156080840152600160a81b909404909316151560a0820152909182036108b3575f9150506108d0565b5f816020015182604001516108c891906119b9565b421015925050505b92915050565b6108de6113ec565b6108e6611414565b6108f133823361143f565b6108fa60015f55565b50565b5f60b482148061090e575061016882145b8061091a575061021c82145b806108d05750506102d01490565b6001600160a01b0381165f908152600360205260408120548190815b81811015610a0a576001600160a01b038086165f908152600260208181526040808420868552825292839020835160c08101855281548152600182015492810192909252918201549281019290925260030154918216606082015260ff600160a01b83048116151560808301819052600160a81b90930416151560a0820152906109f7575f816020015182604001516109dd91906119b9565b90508042106109f55781516109f290866119b9565b94505b505b5080610a02816119cc565b915050610944565b50909392505050565b6001600160a01b0381165f908152600360205260408120548190815b81811015610a0a576001600160a01b038086165f908152600260208181526040808420868552825292839020835160c08101855281548152600182015492810192909252918201549281019290925260030154918216606082015260ff600160a01b8304811615801560808401819052600160a81b909404909116151560a08301529091610abf57508060a00151155b15610ad3578051610ad090856119b9565b93505b5080610ade816119cc565b915050610a2f565b610aee6113ba565b610af661163f565b565b60408051600480825260a082019092526060915f91906020820160808036833701905050905060b4815f81518110610b3257610b326119e4565b60200260200101818152505061016881600181518110610b5457610b546119e4565b60200260200101818152505061021c81600281518110610b7657610b766119e4565b6020026020010181815250506102d081600381518110610b9857610b986119e4565b6020908102919091010152919050565b6001600160a01b0381165f908152600360205260408120548190815b81811015610a0a576001600160a01b0385165f908152600260209081526040808320848452909152902060030154600160a01b900460ff16610c0e5782610c0a816119cc565b9350505b80610c18816119cc565b915050610bc4565b610c286113ec565b610c30611414565b345f03610c5057604051631f2a200560e01b815260040160405180910390fd5b6001600160a01b038116610c775760405163d92e233d60e01b815260040160405180910390fd5b610c80826108fd565b610c9d57604051630f962f3d60e31b815260040160405180910390fd5b5f60035f336001600160a01b03166001600160a01b031681526020019081526020015f205490506040518060c00160405280348152602001848152602001428152602001836001600160a01b031681526020015f151581526020016001151581525060025f336001600160a01b03166001600160a01b031681526020019081526020015f205f8381526020019081526020015f205f820151815f015560208201518160010155604082015181600201556060820151816003015f6101000a8154816001600160a01b0302191690836001600160a01b0316021790555060808201518160030160146101000a81548160ff02191690831515021790555060a08201518160030160156101000a81548160ff02191690831515021790555090505060035f336001600160a01b03166001600160a01b031681526020019081526020015f205f815480929190610def906119cc565b909155505060408051348152602081018590526001600160a01b038416818301529051829133917f8f7e502ff174c052f8b45eba232f18476491048754c5f5a69769b6453a4ff6e49181900360600190a350610e4a60015f55565b5050565b610e566113ec565b610e5e611414565b6001600160a01b038116610e855760405163d92e233d60e01b815260040160405180910390fd5b610e9033838361143f565b610e4a60015f55565b6040516370a0823160e01b81523060048201525f907f00000000000000000000000000000000000000000000000000000000000000006001600160a01b0316906370a0823190602401602060405180830381865afa158015610efd573d5f803e3d5ffd5b505050506040513d601f19601f82011682018060405250810190610f2191906119f8565b905090565b610f2e6113ba565b610af65f611694565b610f3f6113ba565b610af66116e5565b610f4f6113ec565b610f57611414565b825f03610f7757604051631f2a200560e01b815260040160405180910390fd5b6001600160a01b038116610f9e5760405163d92e233d60e01b815260040160405180910390fd5b610fa7826108fd565b610fc457604051630f962f3d60e31b815260040160405180910390fd5b610ff96001600160a01b037f000000000000000000000000000000000000000000000000000000000000000016333086611728565b335f8181526003602081815260408084208054825160c0810184528a81528085018a8152428286019081526001600160a01b038b811660608501908152608085018b815260a086018c81528d8d526002808c528a8e20898f528c52998d20965187559451600187015592519785019790975595519288018054915192511515600160a81b0260ff60a81b19931515600160a01b026001600160a81b031990931694909716939093171716939093179092559484529190528254909290916110bf836119cc565b909155505060408051858152602081018590526001600160a01b038416818301529051829133917f8f7e502ff174c052f8b45eba232f18476491048754c5f5a69769b6453a4ff6e49181900360600190a35061111a60015f55565b505050565b6111276113ba565b6001600160a01b03831661114e5760405163d92e233d60e01b815260040160405180910390fd5b6001600160a01b0381166111755760405163d92e233d60e01b815260040160405180910390fd5b815f0361119557604051631f2a200560e01b815260040160405180910390fd5b6111a96001600160a01b0384168284611795565b806001600160a01b0316836001600160a01b03167ffb475a842bad10d3800b61bd1a92e716051afba979b124b583bd99a2d1d7bfd58460405161081e91815260200190565b6001600160a01b0381165f908152600360205260408120548190815b81811015610a0a576001600160a01b038086165f908152600260208181526040808420868552825292839020835160c08101855281548152600182015492810192909252918201549281019290925260030154918216606082015260ff600160a01b83048116151560808301819052600160a81b90930416151560a08201529061129d57805161129a90856119b9565b93505b50806112a8816119cc565b91505061120a565b6001600160a01b0381165f908152600360205260408120548190815b81811015610a0a576001600160a01b038086165f908152600260208181526040808420868552825292839020835160c08101855281548152600182015492810192909252918201549281019290925260030154918216606082015260ff600160a01b8304811615801560808401819052600160a81b909404909116151560a0830152909161135b57508060a001515b1561136f57805161136c90856119b9565b93505b508061137a816119cc565b9150506112cc565b61138a6113ba565b6001600160a01b0381166113b15760405163d92e233d60e01b815260040160405180910390fd5b6108fa81611694565b6001546001600160a01b03163314610af65760405163118cdaa760e01b81523360048201526024015b60405180910390fd5b60025f540361140e57604051633ee5aeb560e01b815260040160405180910390fd5b60025f55565b600154600160a01b900460ff1615610af65760405163d93c066560e01b815260040160405180910390fd5b6001600160a01b0383165f908152600260209081526040808320858452909152812080549091036114835760405163411321ed60e01b815260040160405180910390fd5b6003810154600160a01b900460ff16156114b357604051600162df265360e01b0319815260040160405180910390fd5b336001600160a01b038516146114dc5760405163a2ca05e160e01b815260040160405180910390fd5b5f816001015482600201546114f191906119b9565b9050804210156115145760405163a434547d60e01b815260040160405180910390fd5b60038201805460ff60a01b1916600160a01b1790819055600160a81b900460ff16156115af5781546040515f916001600160a01b038616918381818185875af1925050503d805f8114611582576040519150601f19603f3d011682016040523d82523d5f602084013e611587565b606091505b50509050806115a957604051631e9acf1760e31b815260040160405180910390fd5b506115e7565b81546115e7906001600160a01b037f000000000000000000000000000000000000000000000000000000000000000016908590611795565b826001600160a01b031684866001600160a01b03167fcd14deae15888f5b07d18a1d40d9d888e7e2ebafb668c79fc153d80d07bd9611855f015460405161163091815260200190565b60405180910390a45050505050565b6116476117c6565b6001805460ff60a01b191690557f5db9ee0a495bf2e6ff9c91a7834c1ba4fdd244a5e8aa4e537bd38aeae4b073aa335b6040516001600160a01b03909116815260200160405180910390a1565b600180546001600160a01b038381166001600160a01b0319831681179093556040519116919082907f8be0079c531659141344cd1fd0a4f28419497f9722a3daafe3b4186f6b6457e0905f90a35050565b6116ed611414565b6001805460ff60a01b1916600160a01b1790557f62e78cea01bee320cd4e420270b5ea74000d11b0c9f74754ebdbfc544b05a2586116773390565b6040516001600160a01b03848116602483015283811660448301526064820183905261178f9186918216906323b872dd906084015b604051602081830303815290604052915060e01b6020820180516001600160e01b0383818316178352505050506117f0565b50505050565b6040516001600160a01b0383811660248301526044820183905261111a91859182169063a9059cbb9060640161175d565b600154600160a01b900460ff16610af657604051638dfc202b60e01b815260040160405180910390fd5b5f8060205f8451602086015f885af18061180f576040513d5f823e3d81fd5b50505f513d91508115611826578060011415611833565b6001600160a01b0384163b155b1561178f57604051635274afe760e01b81526001600160a01b03851660048201526024016113e3565b80356001600160a01b0381168114611872575f80fd5b919050565b5f60208284031215611887575f80fd5b6118908261185c565b9392505050565b5f80604083850312156118a8575f80fd5b6118b18361185c565b946020939093013593505050565b5f602082840312156118cf575f80fd5b5035919050565b602080825282518282018190525f9190848201906040850190845b8181101561190d578351835292840192918401916001016118f1565b50909695505050505050565b5f806040838503121561192a575f80fd5b8235915061193a6020840161185c565b90509250929050565b5f805f60608486031215611955575f80fd5b833592506020840135915061196c6040850161185c565b90509250925092565b5f805f60608486031215611987575f80fd5b6119908461185c565b92506020840135915061196c6040850161185c565b634e487b7160e01b5f52601160045260245ffd5b808201808211156108d0576108d06119a5565b5f600182016119dd576119dd6119a5565b5060010190565b634e487b7160e01b5f52603260045260245ffd5b5f60208284031215611a08575f80fd5b505191905056fea26469706673582212206f6414ca134d2515ab31d40007fa26b43548f3a72c0eac8de343e07f34eaf0a364736f6c63430008140033","linkReferences":{}},"methodIdentifiers":{"LOCK_12_MONTHS()":"33803860","LOCK_3_MONTHS()":"11149445","LOCK_6_MONTHS()":"c0a9c35d","LOCK_9_MONTHS()":"03ddbda0","depositETH(uint256,address)":"56150edf","depositUSDC(uint256,uint256,address)":"a08fcc1a","forwardDeposit(uint256,address)":"650dc79a","getActiveDepositCount(address)":"4234327b","getAvailableWithdrawalAmount(address)":"3782d4ec","getContractBalance()":"6f9fb98a","getContractETHBalance()":"8c89a0ad","getDeposit(address,uint256)":"2726b506","getTotalLockedAmount(address)":"ba2a3cf5","getTotalLockedETH(address)":"ebeaf08f","getTotalLockedUSDC(address)":"3df7283d","getUserDepositCount(address)":"1bae91a4","getValidLockDurations()":"41dc222f","isDepositUnlocked(address,uint256)":"10e7fbff","isValidLockDuration(uint256)":"3624aa5d","owner()":"8da5cb5b","pause()":"8456cb59","paused()":"5c975abb","renounceOwnership()":"715018a6","rescueETH(address)":"04824e70","rescueTokens(address,uint256,address)":"b37fd190","transferOwnership(address)":"f2fde38b","unpause()":"3f4ba83a","usdcToken()":"11eac855","userDepositCount(address)":"729c3e0e","userDeposits(address,uint256)":"08f43333","withdraw(uint256)":"2e1a7d4d"},"id":35}