{"abi":[{"type":"constructor","inputs":[{"name":"_usdcToken","type":"address","internalType":"address"},{"name":"_wbtcToken","type":"address","internalType":"address"}],"stateMutability":"nonpayable"},{"type":"receive","stateMutability":"payable"},{"type":"function","name":"LOCK_12_MONTHS","inputs":[],"outputs":[{"name":"","type":"uint256","internalType":"uint256"}],"stateMutability":"view"},{"type":"function","name":"LOCK_3_MONTHS","inputs":[],"outputs":[{"name":"","type":"uint256","internalType":"uint256"}],"stateMutability":"view"},{"type":"function","name":"LOCK_6_MONTHS","inputs":[],"outputs":[{"name":"","type":"uint256","internalType":"uint256"}],"stateMutability":"view"},{"type":"function","name":"LOCK_9_MONTHS","inputs":[],"outputs":[{"name":"","type":"uint256","internalType":"uint256"}],"stateMutability":"view"},{"type":"function","name":"addMultipleToWhitelist","inputs":[{"name":"users","type":"address[]","internalType":"address[]"}],"outputs":[],"stateMutability":"nonpayable"},{"type":"function","name":"addToWhitelist","inputs":[{"name":"user","type":"address","internalType":"address"}],"outputs":[],"stateMutability":"nonpayable"},{"type":"function","name":"depositETH","inputs":[{"name":"lockDuration","type":"uint256","internalType":"uint256"}],"outputs":[],"stateMutability":"payable"},{"type":"function","name":"depositUSDC","inputs":[{"name":"amount","type":"uint256","internalType":"uint256"},{"name":"lockDuration","type":"uint256","internalType":"uint256"}],"outputs":[],"stateMutability":"nonpayable"},{"type":"function","name":"depositWBTC","inputs":[{"name":"amount","type":"uint256","internalType":"uint256"},{"name":"lockDuration","type":"uint256","internalType":"uint256"}],"outputs":[],"stateMutability":"nonpayable"},{"type":"function","name":"disableWhitelist","inputs":[],"outputs":[],"stateMutability":"nonpayable"},{"type":"function","name":"enableWhitelist","inputs":[],"outputs":[],"stateMutability":"nonpayable"},{"type":"function","name":"forwardDeposit","inputs":[{"name":"depositId","type":"uint256","internalType":"uint256"},{"name":"to","type":"address","internalType":"address"}],"outputs":[],"stateMutability":"nonpayable"},{"type":"function","name":"getActiveDepositCount","inputs":[{"name":"user","type":"address","internalType":"address"}],"outputs":[{"name":"","type":"uint256","internalType":"uint256"}],"stateMutability":"view"},{"type":"function","name":"getAvailableWithdrawalAmount","inputs":[{"name":"user","type":"address","internalType":"address"}],"outputs":[{"name":"","type":"uint256","internalType":"uint256"}],"stateMutability":"view"},{"type":"function","name":"getContractBalance","inputs":[],"outputs":[{"name":"","type":"uint256","internalType":"uint256"}],"stateMutability":"view"},{"type":"function","name":"getContractETHBalance","inputs":[],"outputs":[{"name":"","type":"uint256","internalType":"uint256"}],"stateMutability":"view"},{"type":"function","name":"getContractWBTCBalance","inputs":[],"outputs":[{"name":"","type":"uint256","internalType":"uint256"}],"stateMutability":"view"},{"type":"function","name":"getDeposit","inputs":[{"name":"user","type":"address","internalType":"address"},{"name":"depositId","type":"uint256","internalType":"uint256"}],"outputs":[{"name":"","type":"tuple","internalType":"struct TimelockPiggyBank.Deposit","components":[{"name":"amount","type":"uint256","internalType":"uint256"},{"name":"lockDuration","type":"uint256","internalType":"uint256"},{"name":"depositTime","type":"uint256","internalType":"uint256"},{"name":"isWithdrawn","type":"bool","internalType":"bool"},{"name":"assetType","type":"uint8","internalType":"enum TimelockPiggyBank.AssetType"}]}],"stateMutability":"view"},{"type":"function","name":"getTotalLockedAmount","inputs":[{"name":"user","type":"address","internalType":"address"}],"outputs":[{"name":"","type":"uint256","internalType":"uint256"}],"stateMutability":"view"},{"type":"function","name":"getTotalLockedETH","inputs":[{"name":"user","type":"address","internalType":"address"}],"outputs":[{"name":"","type":"uint256","internalType":"uint256"}],"stateMutability":"view"},{"type":"function","name":"getTotalLockedUSDC","inputs":[{"name":"user","type":"address","internalType":"address"}],"outputs":[{"name":"","type":"uint256","internalType":"uint256"}],"stateMutability":"view"},{"type":"function","name":"getTotalLockedWBTC","inputs":[{"name":"user","type":"address","internalType":"address"}],"outputs":[{"name":"","type":"uint256","internalType":"uint256"}],"stateMutability":"view"},{"type":"function","name":"getUserDepositCount","inputs":[{"name":"user","type":"address","internalType":"address"}],"outputs":[{"name":"","type":"uint256","internalType":"uint256"}],"stateMutability":"view"},{"type":"function","name":"getValidLockDurations","inputs":[],"outputs":[{"name":"","type":"uint256[]","internalType":"uint256[]"}],"stateMutability":"pure"},{"type":"function","name":"isDepositUnlocked","inputs":[{"name":"user","type":"address","internalType":"address"},{"name":"depositId","type":"uint256","internalType":"uint256"}],"outputs":[{"name":"","type":"bool","internalType":"bool"}],"stateMutability":"view"},{"type":"function","name":"isValidLockDuration","inputs":[{"name":"lockDuration","type":"uint256","internalType":"uint256"}],"outputs":[{"name":"","type":"bool","internalType":"bool"}],"stateMutability":"pure"},{"type":"function","name":"isWhitelisted","inputs":[{"name":"","type":"address","internalType":"address"}],"outputs":[{"name":"","type":"bool","internalType":"bool"}],"stateMutability":"view"},{"type":"function","name":"owner","inputs":[],"outputs":[{"name":"","type":"address","internalType":"address"}],"stateMutability":"view"},{"type":"function","name":"pause","inputs":[],"outputs":[],"stateMutability":"nonpayable"},{"type":"function","name":"paused","inputs":[],"outputs":[{"name":"","type":"bool","internalType":"bool"}],"stateMutability":"view"},{"type":"function","name":"removeFromWhitelist","inputs":[{"name":"user","type":"address","internalType":"address"}],"outputs":[],"stateMutability":"nonpayable"},{"type":"function","name":"renounceOwnership","inputs":[],"outputs":[],"stateMutability":"nonpayable"},{"type":"function","name":"rescueETH","inputs":[{"name":"to","type":"address","internalType":"address"}],"outputs":[],"stateMutability":"nonpayable"},{"type":"function","name":"rescueTokens","inputs":[{"name":"token","type":"address","internalType":"address"},{"name":"amount","type":"uint256","internalType":"uint256"},{"name":"to","type":"address","internalType":"address"}],"outputs":[],"stateMutability":"nonpayable"},{"type":"function","name":"transferOwnership","inputs":[{"name":"newOwner","type":"address","internalType":"address"}],"outputs":[],"stateMutability":"nonpayable"},{"type":"function","name":"unpause","inputs":[],"outputs":[],"stateMutability":"nonpayable"},{"type":"function","name":"usdcToken","inputs":[],"outputs":[{"name":"","type":"address","internalType":"contract IERC20"}],"stateMutability":"view"},{"type":"function","name":"userDepositCount","inputs":[{"name":"","type":"address","internalType":"address"}],"outputs":[{"name":"","type":"uint256","internalType":"uint256"}],"stateMutability":"view"},{"type":"function","name":"userDeposits","inputs":[{"name":"","type":"address","internalType":"address"},{"name":"","type":"uint256","internalType":"uint256"}],"outputs":[{"name":"amount","type":"uint256","internalType":"uint256"},{"name":"lockDuration","type":"uint256","internalType":"uint256"},{"name":"depositTime","type":"uint256","internalType":"uint256"},{"name":"isWithdrawn","type":"bool","internalType":"bool"},{"name":"assetType","type":"uint8","internalType":"enum TimelockPiggyBank.AssetType"}],"stateMutability":"view"},{"type":"function","name":"wbtcToken","inputs":[],"outputs":[{"name":"","type":"address","internalType":"contract IERC20"}],"stateMutability":"view"},{"type":"function","name":"whitelistEnabled","inputs":[],"outputs":[{"name":"","type":"bool","internalType":"bool"}],"stateMutability":"view"},{"type":"function","name":"withdraw","inputs":[{"name":"depositId","type":"uint256","internalType":"uint256"}],"outputs":[],"stateMutability":"nonpayable"},{"type":"event","name":"DepositCreated","inputs":[{"name":"user","type":"address","indexed":true,"internalType":"address"},{"name":"depositId","type":"uint256","indexed":true,"internalType":"uint256"},{"name":"amount","type":"uint256","indexed":false,"internalType":"uint256"},{"name":"lockDuration","type":"uint256","indexed":false,"internalType":"uint256"}],"anonymous":false},{"type":"event","name":"DepositForwarded","inputs":[{"name":"user","type":"address","indexed":true,"internalType":"address"},{"name":"depositId","type":"uint256","indexed":true,"internalType":"uint256"},{"name":"amount","type":"uint256","indexed":false,"internalType":"uint256"},{"name":"to","type":"address","indexed":true,"internalType":"address"}],"anonymous":false},{"type":"event","name":"DepositWithdrawn","inputs":[{"name":"user","type":"address","indexed":true,"internalType":"address"},{"name":"depositId","type":"uint256","indexed":true,"internalType":"uint256"},{"name":"amount","type":"uint256","indexed":false,"internalType":"uint256"},{"name":"to","type":"address","indexed":true,"internalType":"address"}],"anonymous":false},{"type":"event","name":"OwnershipTransferred","inputs":[{"name":"previousOwner","type":"address","indexed":true,"internalType":"address"},{"name":"newOwner","type":"address","indexed":true,"internalType":"address"}],"anonymous":false},{"type":"event","name":"Paused","inputs":[{"name":"account","type":"address","indexed":false,"internalType":"address"}],"anonymous":false},{"type":"event","name":"TokensRescued","inputs":[{"name":"token","type":"address","indexed":true,"internalType":"address"},{"name":"amount","type":"uint256","indexed":false,"internalType":"uint256"},{"name":"to","type":"address","indexed":true,"internalType":"address"}],"anonymous":false},{"type":"event","name":"Unpaused","inputs":[{"name":"account","type":"address","indexed":false,"internalType":"address"}],"anonymous":false},{"type":"event","name":"UserRemovedFromWhitelist","inputs":[{"name":"user","type":"address","indexed":true,"internalType":"address"}],"anonymous":false},{"type":"event","name":"UserWhitelisted","inputs":[{"name":"user","type":"address","indexed":true,"internalType":"address"}],"anonymous":false},{"type":"event","name":"WhitelistDisabled","inputs":[],"anonymous":false},{"type":"event","name":"WhitelistEnabled","inputs":[],"anonymous":false},{"type":"error","name":"DepositAlreadyWithdrawn","inputs":[]},{"type":"error","name":"DepositNotFound","inputs":[]},{"type":"error","name":"DepositNotUnlocked","inputs":[]},{"type":"error","name":"EnforcedPause","inputs":[]},{"type":"error","name":"ExpectedPause","inputs":[]},{"type":"error","name":"InsufficientBalance","inputs":[]},{"type":"error","name":"InvalidDepositId","inputs":[]},{"type":"error","name":"InvalidLockDuration","inputs":[]},{"type":"error","name":"NotWhitelisted","inputs":[]},{"type":"error","name":"OwnableInvalidOwner","inputs":[{"name":"owner","type":"address","internalType":"address"}]},{"type":"error","name":"OwnableUnauthorizedAccount","inputs":[{"name":"account","type":"address","internalType":"address"}]},{"type":"error","name":"ReentrancyGuardReentrantCall","inputs":[]},{"type":"error","name":"SafeERC20FailedOperation","inputs":[{"name":"token","type":"address","internalType":"address"}]},{"type":"error","name":"ZeroAddress","inputs":[]},{"type":"error","name":"ZeroAmount","inputs":[]}],"bytecode":{"object":"0x60c060405234801562000010575f80fd5b506040516200240838038062002408833981016040819052620000339162000148565b60015f5533806200005d57604051631e4fbdf760e01b81525f600482015260240160405180910390fd5b6200006881620000db565b506001600160a01b038216620000915760405163d92e233d60e01b815260040160405180910390fd5b6001600160a01b038116620000b95760405163d92e233d60e01b815260040160405180910390fd5b6001600160a01b039182166080521660a0526005805460ff191690556200017e565b600180546001600160a01b038381166001600160a01b0319831681179093556040519116919082907f8be0079c531659141344cd1fd0a4f28419497f9722a3daafe3b4186f6b6457e0905f90a35050565b80516001600160a01b038116811462000143575f80fd5b919050565b5f80604083850312156200015a575f80fd5b62000165836200012c565b915062000175602084016200012c565b90509250929050565b60805160a05161223e620001ca5f395f818161040a01528181611267015281816119a00152611c6a01525f818161035f01528181610fce015281816117ed0152611c08015261223e5ff3fe60806040526004361061024c575f3560e01c8063650dc79a11610134578063b37fd190116100b3578063d6b0f48411610078578063d6b0f48414610724578063e43252d714610738578063e740010f14610757578063ebeaf08f14610776578063f2fde38b14610795578063fb4a1ca7146107b4575f80fd5b8063b37fd1901461069d578063ba2a3cf5146106bc578063be741fe3146106db578063c0a9c35d146106fa578063cdfb2b4e14610710575f80fd5b80638456cb59116100f95780638456cb591461061c5780638ab1d681146106305780638c89a0ad1461064f5780638da5cb5b14610661578063adc3a78e1461067e575f80fd5b8063650dc79a1461058b5780636f9fb98a146105aa578063715018a6146105be578063729c3e0e146105d25780638401f8d1146105fd575f80fd5b806333803860116101cb5780633f4ba83a116101905780633f4ba83a146104ed57806341dc222f146105015780634234327b1461052257806351fb012d146105415780635358fbda1461055a5780635c975abb1461056d575f80fd5b8063338038601461044b5780633624aa5d146104625780633782d4ec146104815780633af32abf146104a05780633df7283d146104ce575f80fd5b806311eac8551161021157806311eac8551461034e5780631bae91a4146103995780632726b506146103cd57806327614df8146103f95780632e1a7d4d1461042c575f80fd5b806303ddbda01461025757806304824e701461028157806308f43333146102a257806310e7fbff146103095780631114944514610338575f80fd5b3661025357005b5f80fd5b348015610262575f80fd5b5061026e630163f50081565b6040519081526020015b60405180910390f35b34801561028c575f80fd5b506102a061029b366004611f5e565b6107c8565b005b3480156102ad575f80fd5b506102f86102bc366004611f7e565b600260208181525f9384526040808520909152918352912080546001820154928201546003909201549092919060ff8082169161010090041685565b604051610278959493929190611fda565b348015610314575f80fd5b50610328610323366004611f7e565b6108cf565b6040519015158152602001610278565b348015610343575f80fd5b5061026e6276a70081565b348015610359575f80fd5b506103817f000000000000000000000000000000000000000000000000000000000000000081565b6040516001600160a01b039091168152602001610278565b3480156103a4575f80fd5b5061026e6103b3366004611f5e565b6001600160a01b03165f9081526003602052604090205490565b3480156103d8575f80fd5b506103ec6103e7366004611f7e565b61098f565b604051610278919061200e565b348015610404575f80fd5b506103817f000000000000000000000000000000000000000000000000000000000000000081565b348015610437575f80fd5b506102a0610446366004612052565b610a2a565b348015610456575f80fd5b5061026e6301e1338081565b34801561046d575f80fd5b5061032861047c366004612052565b610a51565b34801561048c575f80fd5b5061026e61049b366004611f5e565b610a83565b3480156104ab575f80fd5b506103286104ba366004611f5e565b60046020525f908152604090205460ff1681565b3480156104d9575f80fd5b5061026e6104e8366004611f5e565b610b88565b3480156104f8575f80fd5b506102a0610c86565b34801561050c575f80fd5b50610515610c98565b6040516102789190612069565b34801561052d575f80fd5b5061026e61053c366004611f5e565b610d4f565b34801561054c575f80fd5b506005546103289060ff1681565b6102a0610568366004612052565b610dc0565b348015610578575f80fd5b50600154600160a01b900460ff16610328565b348015610596575f80fd5b506102a06105a53660046120ac565b610f68565b3480156105b5575f80fd5b5061026e610fb7565b3480156105c9575f80fd5b506102a0611045565b3480156105dd575f80fd5b5061026e6105ec366004611f5e565b60036020525f908152604090205481565b348015610608575f80fd5b506102a06106173660046120d6565b611056565b348015610627575f80fd5b506102a0611165565b34801561063b575f80fd5b506102a061064a366004611f5e565b611175565b34801561065a575f80fd5b504761026e565b34801561066c575f80fd5b506001546001600160a01b0316610381565b348015610689575f80fd5b506102a0610698366004612145565b6111c5565b3480156106a8575f80fd5b506102a06106b7366004612165565b6113ac565b3480156106c7575f80fd5b5061026e6106d6366004611f5e565b61147b565b3480156106e6575f80fd5b5061026e6106f5366004611f5e565b611557565b348015610705575f80fd5b5061026e62ed4e0081565b34801561071b575f80fd5b506102a0611656565b34801561072f575f80fd5b506102a0611695565b348015610743575f80fd5b506102a0610752366004611f5e565b6116d1565b348015610762575f80fd5b506102a0610771366004612145565b61174b565b348015610781575f80fd5b5061026e610790366004611f5e565b611852565b3480156107a0575f80fd5b506102a06107af366004611f5e565b611951565b3480156107bf575f80fd5b5061026e611989565b6107d06119d7565b6001600160a01b0381166107f75760405163d92e233d60e01b815260040160405180910390fd5b475f81900361081957604051631f2a200560e01b815260040160405180910390fd5b5f826001600160a01b0316826040515f6040518083038185875af1925050503d805f8114610862576040519150601f19603f3d011682016040523d82523d5f602084013e610867565b606091505b505090508061088957604051631e9acf1760e31b815260040160405180910390fd5b6040518281526001600160a01b038416905f907ffb475a842bad10d3800b61bd1a92e716051afba979b124b583bd99a2d1d7bfd5906020015b60405180910390a3505050565b6001600160a01b0382165f9081526002602081815260408084208585528252808420815160a081018352815481526001820154938101939093528084015491830191909152600381015460ff808216151560608501528594608085019261010090049091169081111561094457610944611fa6565b600281111561095557610955611fa6565b90525080519091505f0361096c575f915050610989565b5f8160200151826040015161098191906121b2565b421015925050505b92915050565b610997611f07565b6001600160a01b0383165f908152600260208181526040808420868552825292839020835160a081018552815481526001820154928101929092528083015493820193909352600383015460ff80821615156060840152919392608085019261010090920490911690811115610a0f57610a0f611fa6565b6002811115610a2057610a20611fa6565b9052509392505050565b610a32611a09565b610a3a611a31565b610a45338233611a5c565b610a4e60015f55565b50565b5f6276a700821480610a65575062ed4e0082145b80610a735750630163f50082145b806109895750506301e133801490565b6001600160a01b0381165f908152600360205260408120548190815b81811015610b7f576001600160a01b0385165f9081526002602081815260408084208585528252808420815160a081018352815481526001820154938101939093528084015491830191909152600381015460ff808216151560608501529293919260808501926101009092041690811115610b1d57610b1d611fa6565b6002811115610b2e57610b2e611fa6565b8152505090508060600151610b6c575f81602001518260400151610b5291906121b2565b9050804210610b6a578151610b6790866121b2565b94505b505b5080610b77816121c5565b915050610a9f565b50909392505050565b6001600160a01b0381165f908152600360205260408120548190815b81811015610b7f576001600160a01b0385165f9081526002602081815260408084208585528252808420815160a081018352815481526001820154938101939093528084015491830191909152600381015460ff808216151560608501529293919260808501926101009092041690811115610c2257610c22611fa6565b6002811115610c3357610c33611fa6565b8152505090508060600151158015610c5f57505f81608001516002811115610c5d57610c5d611fa6565b145b15610c73578051610c7090856121b2565b93505b5080610c7e816121c5565b915050610ba4565b610c8e6119d7565b610c96611cea565b565b60408051600480825260a082019092526060915f9190602082016080803683370190505090506276a700815f81518110610cd457610cd46121dd565b60200260200101818152505062ed4e0081600181518110610cf757610cf76121dd565b602002602001018181525050630163f50081600281518110610d1b57610d1b6121dd565b6020026020010181815250506301e1338081600381518110610d3f57610d3f6121dd565b6020908102919091010152919050565b6001600160a01b0381165f908152600360205260408120548190815b81811015610b7f576001600160a01b0385165f90815260026020908152604080832084845290915290206003015460ff16610dae5782610daa816121c5565b9350505b80610db8816121c5565b915050610d6b565b610dc8611a09565b610dd0611a31565b60055460ff168015610df15750335f9081526004602052604090205460ff16155b15610e0f57604051630b094f2760e31b815260040160405180910390fd5b345f03610e2f57604051631f2a200560e01b815260040160405180910390fd5b610e3881610a51565b610e5557604051630f962f3d60e31b815260040160405180910390fd5b335f81815260036020818152604080842054815160a08101835234815280840188815242828501908152606083018881526001608085018181529a8a526002808952878b20878c5290985295909820835181559151948201949094559251838501559451938201805494151560ff198616811782559651919692949193909261ff00191661ffff199092169190911790610100908490811115610efa57610efa611fa6565b021790555050335f9081526003602052604081208054925090610f1c836121c5565b90915550506040805134815260208101849052829133917ff811ab5e57a042e3e695bd443e567871efb7410da1bfe8d6f04bdfb36ca93309910160405180910390a350610a4e60015f55565b610f70611a09565b610f78611a31565b6001600160a01b038116610f9f5760405163d92e233d60e01b815260040160405180910390fd5b610faa338383611a5c565b610fb360015f55565b5050565b6040516370a0823160e01b81523060048201525f907f00000000000000000000000000000000000000000000000000000000000000006001600160a01b0316906370a08231906024015b602060405180830381865afa15801561101c573d5f803e3d5ffd5b505050506040513d601f19601f8201168201806040525081019061104091906121f1565b905090565b61104d6119d7565b610c965f611d3f565b61105e6119d7565b5f5b81811015611160575f83838381811061107b5761107b6121dd565b90506020020160208101906110909190611f5e565b6001600160a01b03161461114e57600160045f8585858181106110b5576110b56121dd565b90506020020160208101906110ca9190611f5e565b6001600160a01b0316815260208101919091526040015f20805460ff1916911515919091179055828282818110611103576111036121dd565b90506020020160208101906111189190611f5e565b6001600160a01b03167f7409cb8e690bcd1487fd4fd27dad3fa92388d201ba6f953631d6d6b26299f84960405160405180910390a25b80611158816121c5565b915050611060565b505050565b61116d6119d7565b610c96611d90565b61117d6119d7565b6001600160a01b0381165f81815260046020526040808220805460ff19169055517fe285bb51ee9ef78b36fb9eca52aede9c9f4234d2bb72917200f87005edb25a559190a250565b6111cd611a09565b6111d5611a31565b60055460ff1680156111f65750335f9081526004602052604090205460ff16155b1561121457604051630b094f2760e31b815260040160405180910390fd5b815f0361123457604051631f2a200560e01b815260040160405180910390fd5b61123d81610a51565b61125a57604051630f962f3d60e31b815260040160405180910390fd5b61128f6001600160a01b037f000000000000000000000000000000000000000000000000000000000000000016333085611dd3565b335f90815260036020908152604080832054815160a081018352868152928301859052429183019190915260608201929092526080810160025b9052335f908152600260208181526040808420868552825292839020845181559084015160018201559183015182820155606083015160038301805491151560ff19831681178255608086015193919261ff001990911661ffff19909116179061010090849081111561133e5761133e611fa6565b021790555050335f9081526003602052604081208054925090611360836121c5565b90915550506040805184815260208101849052829133917ff811ab5e57a042e3e695bd443e567871efb7410da1bfe8d6f04bdfb36ca93309910160405180910390a350610fb360015f55565b6113b46119d7565b6001600160a01b0383166113db5760405163d92e233d60e01b815260040160405180910390fd5b6001600160a01b0381166114025760405163d92e233d60e01b815260040160405180910390fd5b815f0361142257604051631f2a200560e01b815260040160405180910390fd5b6114366001600160a01b0384168284611e40565b806001600160a01b0316836001600160a01b03167ffb475a842bad10d3800b61bd1a92e716051afba979b124b583bd99a2d1d7bfd5846040516108c291815260200190565b6001600160a01b0381165f908152600360205260408120548190815b81811015610b7f576001600160a01b0385165f9081526002602081815260408084208585528252808420815160a081018352815481526001820154938101939093528084015491830191909152600381015460ff80821615156060850152929391926080850192610100909204169081111561151557611515611fa6565b600281111561152657611526611fa6565b815250509050806060015161154457805161154190856121b2565b93505b508061154f816121c5565b915050611497565b6001600160a01b0381165f908152600360205260408120548190815b81811015610b7f576001600160a01b0385165f9081526002602081815260408084208585528252808420815160a081018352815481526001820154938101939093528084015491830191909152600381015460ff8082161515606085015292939192608085019261010090920416908111156115f1576115f1611fa6565b600281111561160257611602611fa6565b815250509050806060015115801561162f575060028160800151600281111561162d5761162d611fa6565b145b1561164357805161164090856121b2565b93505b508061164e816121c5565b915050611573565b61165e6119d7565b6005805460ff191660011790556040517fe5e5846f783279948f6ec5faad38318cde86fe5be7ea845ede56d62f16c37434905f90a1565b61169d6119d7565b6005805460ff191690556040517f212c6e1d3045c9581ef0adf2504dbb1d137f52f38162ccf77a16c69d14eba5c3905f90a1565b6116d96119d7565b6001600160a01b0381166117005760405163d92e233d60e01b815260040160405180910390fd5b6001600160a01b0381165f81815260046020526040808220805460ff19166001179055517f7409cb8e690bcd1487fd4fd27dad3fa92388d201ba6f953631d6d6b26299f8499190a250565b611753611a09565b61175b611a31565b60055460ff16801561177c5750335f9081526004602052604090205460ff16155b1561179a57604051630b094f2760e31b815260040160405180910390fd5b815f036117ba57604051631f2a200560e01b815260040160405180910390fd5b6117c381610a51565b6117e057604051630f962f3d60e31b815260040160405180910390fd5b6118156001600160a01b037f000000000000000000000000000000000000000000000000000000000000000016333085611dd3565b335f90815260036020908152604080832054815160a0810183528681529283018590524291830191909152606082018390529160808201906112c9565b6001600160a01b0381165f908152600360205260408120548190815b81811015610b7f576001600160a01b0385165f9081526002602081815260408084208585528252808420815160a081018352815481526001820154938101939093528084015491830191909152600381015460ff8082161515606085015292939192608085019261010090920416908111156118ec576118ec611fa6565b60028111156118fd576118fd611fa6565b815250509050806060015115801561192a575060018160800151600281111561192857611928611fa6565b145b1561193e57805161193b90856121b2565b93505b5080611949816121c5565b91505061186e565b6119596119d7565b6001600160a01b0381166119805760405163d92e233d60e01b815260040160405180910390fd5b610a4e81611d3f565b6040516370a0823160e01b81523060048201525f907f00000000000000000000000000000000000000000000000000000000000000006001600160a01b0316906370a0823190602401611001565b6001546001600160a01b03163314610c965760405163118cdaa760e01b81523360048201526024015b60405180910390fd5b60025f5403611a2b57604051633ee5aeb560e01b815260040160405180910390fd5b60025f55565b600154600160a01b900460ff1615610c965760405163d93c066560e01b815260040160405180910390fd5b6001600160a01b0383165f90815260026020908152604080832085845290915281208054909103611aa05760405163411321ed60e01b815260040160405180910390fd5b600381015460ff1615611ac957604051600162df265360e01b0319815260040160405180910390fd5b336001600160a01b03851614611af25760405163a2ca05e160e01b815260040160405180910390fd5b5f81600101548260020154611b0791906121b2565b905080421015611b2a5760405163a434547d60e01b815260040160405180910390fd5b60038201805460ff191660019081179091556003830154610100900460ff166002811115611b5a57611b5a611fa6565b03611bd45781546040515f916001600160a01b038616918381818185875af1925050503d805f8114611ba7576040519150601f19603f3d011682016040523d82523d5f602084013e611bac565b606091505b5050905080611bce57604051631e9acf1760e31b815260040160405180910390fd5b50611c92565b5f6003830154610100900460ff166002811115611bf357611bf3611fa6565b03611c35578154611c30906001600160a01b037f000000000000000000000000000000000000000000000000000000000000000016908590611e40565b611c92565b60026003830154610100900460ff166002811115611c5557611c55611fa6565b03611c92578154611c92906001600160a01b037f000000000000000000000000000000000000000000000000000000000000000016908590611e40565b826001600160a01b031684866001600160a01b03167fcd14deae15888f5b07d18a1d40d9d888e7e2ebafb668c79fc153d80d07bd9611855f0154604051611cdb91815260200190565b60405180910390a45050505050565b611cf2611e71565b6001805460ff60a01b191690557f5db9ee0a495bf2e6ff9c91a7834c1ba4fdd244a5e8aa4e537bd38aeae4b073aa335b6040516001600160a01b03909116815260200160405180910390a1565b600180546001600160a01b038381166001600160a01b0319831681179093556040519116919082907f8be0079c531659141344cd1fd0a4f28419497f9722a3daafe3b4186f6b6457e0905f90a35050565b611d98611a31565b6001805460ff60a01b1916600160a01b1790557f62e78cea01bee320cd4e420270b5ea74000d11b0c9f74754ebdbfc544b05a258611d223390565b6040516001600160a01b038481166024830152838116604483015260648201839052611e3a9186918216906323b872dd906084015b604051602081830303815290604052915060e01b6020820180516001600160e01b038381831617835250505050611e9b565b50505050565b6040516001600160a01b0383811660248301526044820183905261116091859182169063a9059cbb90606401611e08565b600154600160a01b900460ff16610c9657604051638dfc202b60e01b815260040160405180910390fd5b5f8060205f8451602086015f885af180611eba576040513d5f823e3d81fd5b50505f513d91508115611ed1578060011415611ede565b6001600160a01b0384163b155b15611e3a57604051635274afe760e01b81526001600160a01b0385166004820152602401611a00565b6040518060a001604052805f81526020015f81526020015f81526020015f151581526020015f6002811115611f3e57611f3e611fa6565b905290565b80356001600160a01b0381168114611f59575f80fd5b919050565b5f60208284031215611f6e575f80fd5b611f7782611f43565b9392505050565b5f8060408385031215611f8f575f80fd5b611f9883611f43565b946020939093013593505050565b634e487b7160e01b5f52602160045260245ffd5b60038110611fd657634e487b7160e01b5f52602160045260245ffd5b9052565b8581526020810185905260408101849052821515606082015260a081016120046080830184611fba565b9695505050505050565b5f60a082019050825182526020830151602083015260408301516040830152606083015115156060830152608083015161204b6080840182611fba565b5092915050565b5f60208284031215612062575f80fd5b5035919050565b602080825282518282018190525f9190848201906040850190845b818110156120a057835183529284019291840191600101612084565b50909695505050505050565b5f80604083850312156120bd575f80fd5b823591506120cd60208401611f43565b90509250929050565b5f80602083850312156120e7575f80fd5b823567ffffffffffffffff808211156120fe575f80fd5b818501915085601f830112612111575f80fd5b81358181111561211f575f80fd5b8660208260051b8501011115612133575f80fd5b60209290920196919550909350505050565b5f8060408385031215612156575f80fd5b50508035926020909101359150565b5f805f60608486031215612177575f80fd5b61218084611f43565b92506020840135915061219560408501611f43565b90509250925092565b634e487b7160e01b5f52601160045260245ffd5b808201808211156109895761098961219e565b5f600182016121d6576121d661219e565b5060010190565b634e487b7160e01b5f52603260045260245ffd5b5f60208284031215612201575f80fd5b505191905056fea26469706673582212207a43bd26ddc417d0fc962d143057d2b21cc8e184f27bda5bd023de2335c25f7264736f6c63430008140033","linkReferences":{}},"methodIdentifiers":{"LOCK_12_MONTHS()":"33803860","LOCK_3_MONTHS()":"11149445","LOCK_6_MONTHS()":"c0a9c35d","LOCK_9_MONTHS()":"03ddbda0","addMultipleToWhitelist(address[])":"8401f8d1","addToWhitelist(address)":"e43252d7","depositETH(uint256)":"5358fbda","depositUSDC(uint256,uint256)":"e740010f","depositWBTC(uint256,uint256)":"adc3a78e","disableWhitelist()":"d6b0f484","enableWhitelist()":"cdfb2b4e","forwardDeposit(uint256,address)":"650dc79a","getActiveDepositCount(address)":"4234327b","getAvailableWithdrawalAmount(address)":"3782d4ec","getContractBalance()":"6f9fb98a","getContractETHBalance()":"8c89a0ad","getContractWBTCBalance()":"fb4a1ca7","getDeposit(address,uint256)":"2726b506","getTotalLockedAmount(address)":"ba2a3cf5","getTotalLockedETH(address)":"ebeaf08f","getTotalLockedUSDC(address)":"3df7283d","getTotalLockedWBTC(address)":"be741fe3","getUserDepositCount(address)":"1bae91a4","getValidLockDurations()":"41dc222f","isDepositUnlocked(address,uint256)":"10e7fbff","isValidLockDuration(uint256)":"3624aa5d","isWhitelisted(address)":"3af32abf","owner()":"8da5cb5b","pause()":"8456cb59","paused()":"5c975abb","removeFromWhitelist(address)":"8ab1d681","renounceOwnership()":"715018a6","rescueETH(address)":"04824e70","rescueTokens(address,uint256,address)":"b37fd190","transferOwnership(address)":"f2fde38b","unpause()":"3f4ba83a","usdcToken()":"11eac855","userDepositCount(address)":"729c3e0e","userDeposits(address,uint256)":"08f43333","wbtcToken()":"27614df8","whitelistEnabled()":"51fb012d","withdraw(uint256)":"2e1a7d4d"},"id":34}